:020000040800F2
:10000000181E002001470008F5010008F70100084C
:1000100000000000000000000000000000000000E0
:10002000000000000000000000000000FF010008C8
:1000300000000000000000000F4700088560000875
:100040001347000813470008134700081347000828
:10005000134700081347000813470008472B000800
:100060001347000813470008134700081347000808
:1000700013470008134700081347000813470008F8
:10008000134700081347000800000000134700084A
:1000900013470008134700081347000813470008D8
:1000A000134700081347000813470008F71A000811
:1000B000393100080000000013470008000000006C
:1000C0000348854606F0C4F80048004701010008CF
:1000D000181E002040BA7047C0BA70477047000031
:1000E00010B53B4804F036F8062004F036F8192025
:1000F000C00104F035F804F036F804F03BF810BD08
:1001000010B504F0FBFC05F0CEFFFFF7E9FF01F0AE
:10011000DAFB01F01CFD002005F042F82D490860D3
:1001200004232D4A00212D4805F09BFA04460223A2
:100130002B4A00212B4805F094FA044605232A4A4D
:1001400000212A4805F08DFA044600BF04F002FEA3
:10015000002010BD00BF00BF0120C00201F09EFBC7
:100160007D23DB0000221146104605F0FBFD012037
:10017000C00201F08BFB7D23DB00002211461046FC
:1001800005F0F0FDE8E700BF00BF0120000301F02B
:1001900085FB7D20C00005F0AFFD0120000301F0CC
:1001A00075FB7D20C00005F0A7FDEEE701B500203E
:1001B00006E0002100E0491C0D4A9142FBDB401C97
:1001C000009A9042F5D308BD10B503F0CCFF10BDE6
:1001D00055550000000000209C0200200F1500086B
:1001E0009C0A00201D1600089C0C0020650D0008CC
:1001F00088130000704701E0FFF770FFFCE77047CD
:1002000000B585B00121880303F067FA0021684634
:100210000180FF21053141800721090281800221EF
:10022000C180012101814902418100218181C18177
:10023000072101826946E54804F035F801210903E8
:10024000E24804F003F90121E04804F0CEF805B0DB
:1002500000BD1CB501210320400403F022FA002157
:10026000684681710121C17107204003009002217D
:100270006846417101716946D54803F0D3FA0022FE
:100280000D21D34803F057FB00220E21D04803F084
:1002900052FB00220F21CE4803F04DFB012000034A
:1002A0000090012168460171022141710021817194
:1002B000C1716946C64803F0B5FAFF2001300090CD
:1002C0000121684601710221417100218171C171D2
:1002D00069460920C00603F0A5FAFF210131092073
:1002E000C00603F01CFB01210903B94803F017FB0A
:1002F0001CBD10B5FFF7ADFFFFF782FF10BD10B5B5
:10030000044600BFB1480089022108400028F9D006
:100310002146AE4804F0D9F800BFAC480089C007B8
:10032000C00F0028F9D0A94804F0D6F810BDF0B5E8
:10033000FFB084B0002082900026002702F02AFB44
:100340008290A4A0829905F0B7FFA7A005F0B4FFA2
:10035000002402E042A90C55641CFF2CFAD90024A9
:1003600003E0204602F041FA641C002CF9D000257D
:1003700027E02902FF22013242A802F0E9F929020E
:10038000FF22013202A802F087F9002412E002A83D
:10039000005D42A9095D88420BD07F1C42A8005D28
:1003A0000094019002A8035D2246294694A005F01E
:1003B00083FF641CFF2CEAD9002F01D00027761C94
:1003C0006D1C0F2DD5D3002E05D00026314699A0E7
:1003D00005F072FF02E0A14805F06EFF7FB004B0A7
:1003E000F0BD00B5FFB082B0FF21013141A805F09A
:1003F000E0FEFF21013101A805F0DBFEFF21013104
:1004000041A805F0D6FEFF2201321121090241A8C0
:1004100002F042F9042241A9914805F0A3FE904858
:100420008078FF281FD18FA005F046FF00208C495F
:10043000087004204870192088700020C8700120BE
:1004400002F0D3F9FF21013101A805F0B2FE042228
:10045000834901A805F086FEFF220132112109021D
:1004600001A802F075F97FB002B000BD30B5C1B08F
:1004700004460D46FF21013101A805F09AFE012036
:1004800002F0B3F9FF21013101A805F092FE2A46DE
:10049000214601A805F066FEFF2201321121090262
:1004A00001A802F055F941B030BD00B5FFB082B0EF
:1004B000FF21013141A805F07CFEFF21013101A897
:1004C00005F077FEFF21013141A805F072FEFF2201
:1004D00001322121090241A802F0DEF8202241A9BF
:1004E000674805F03FFE752066490870B1204870E6
:1004F000DE2088708C20C870634888806048807CCB
:10050000562827D061A005F0D7FE112268A15C48CB
:1005100005F028FE07226BA15948123005F022FE93
:10052000072268A15648193005F01CFE022002F08F
:100530005CF9FF21013101A805F03BFE2022504962
:1005400001A805F00FFEFF2201322121090201A8B6
:1005500002F0FEF87FB002B000BD00B5FFB082B07F
:10056000FF21013141A805F024FEFF21013101A83E
:1005700005F01FFE424B1933DA1F4149534805F07D
:100580009BFE022002F031F920223D4941A805F0EE
:10059000E9FDFF2201322121090241A802F0D8F829
:1005A000FF2201322121090201A802F075F8202260
:1005B00001A9334805F0D6FD314B1933DA1F304914
:1005C000434805F079FE7FB002B000BD003800401E
:1005D000000400487370695F666C6173685F6964EA
:1005E0003B25780D0A000000737069666C617368C2
:1005F0005F746573742073746172740D0A00000077
:10060000706167655F696E6465783A25642C726510
:1006100061645F6275665B25645D3D25642C77725D
:100620006974655F6275665B25645D3D25640D0ACE
:1006300000000000737069666C61736820746573F4
:1006400074206572726F7221206572726F722063FE
:100650006E74203D2564200D0A0000002467000808
:1006600004000020777269746520696E69742075D2
:100670006D6272656C6C6120696E666F720D0A0046
:10068000A00C002008000020FC3A0000777269747A
:100690006520696E69742076657273696F6E206477
:1006A000657669636520696E666F720D0A000000E9
:1006B000313531313031303630303030303030312A
:1006C0000000000056312E302E3000006867000810
:1006D000B8670008FFB5A1B006461C46802101A8F6
:1006E00005F067FD00270025552168460171AA2104
:1006F0004171204608300004010E68468171204691
:100700000830C1B26846C171229901724672012156
:10071000817200BF06E02398415DE81D01AA1154D3
:10072000681CC5B2A542F6DB0027002505E001A83C
:10073000405DC019C7B2681CC5B2E01DA842F6DC16
:1007400001A90F54411C01A802F071FB25B0F0BDB6
:1007500008B500200090009001236A4608210F2070
:10076000FFF7B8FF08BD08B50020009000216846DB
:100770000170FD48817868464170FB48C178684641
:10078000817003236A4607210F20FFF7A3FF08BDEE
:10079000FEB505460E460020009001900290002410
:1007A0006846057000BF04E0315D6A46601C115464
:1007B000C4B2082CF8DB09236A4605210F20FFF795
:1007C00089FFFEBDFEB505460E4600200090019053
:1007D000029000246846057000BF04E0315D6A465F
:1007E000601C1154C4B2082CF8DB09236A460421AA
:1007F0000F20FFF76FFFFEBDFEB505460E461746FC
:100800000020009001900290002468460570467018
:1008100000BF05E0395D6A46A01C1154601CC4B2DB
:10082000082CF7DB0A236A4603210F20FFF752FF4B
:10083000FEBDFEB505460E460020009001900290D8
:1008400000246846057000BF04E0315D6A46601C04
:100850001154C4B2082CF8DB09236A4601210F2089
:10086000FFF738FFFEBD70B504460025002620794D
:10087000030005F045FD09060AFD38FCFBFAF9F80E
:10088000F700BAA005F018FD69E2BE48007808211B
:1008900088430830BB490870E079012822D1BAA00A
:1008A00005F00AFDB748007840084000401CB549F3
:1008B00008700846007802218843801CB1490870FE
:1008C0000846007804218843AE490870084600783D
:1008D000102188431030AB490870214608310020B0
:1008E000FFF7A7FF3BE2A7480078082188430830BC
:1008F000A4490870E07901287ED1082221460931F7
:10090000A64805F02FFC207A012804D0022874D0D4
:10091000032873D1FEE00120A1490870A1A005F0D1
:10092000CBFC984800781021884396490870084607
:10093000007840084000401C0870084600780221FA
:100940008843801C8F49087008460078042188433A
:100950008C4908700021012002F0BCF89948007809
:100960004008400097490870002535E0052005F053
:10097000C3F94B21C900284605F0E0FB002902D14C
:100980001C2001F006FE8F480078C007C00F002829
:1009900020D01B2001F0FDFD804A81480178002015
:1009A000FFF72AFFFF20F53005F0A6F901210846E0
:1009B00002F090F884A005F07FFC724800780221D4
:1009C0008843704908707F480078400840007D499E
:1009D000087070BD681C85B2192080018542C5DB96
:1009E00078480078400840007649087065480078EB
:1009F00002218843634902E05FE10FE05BE1087098
:100A0000664A674801780320FFF7F6FE0121084691
:100A100002F060F873A005F04FFC4DE10220604940
:100A2000087076A005F048FC564800784008400061
:100A3000401C544908700846007802218843801CF5
:100A4000504908700846007804218843001D4D492C
:100A500008700021022002F03DF85A480078022177
:100A6000884306E07AE16DE163E158E142E12CE17F
:100A700024E15449087000252EE0052005F03CF9DA
:100A80004B21C900284605F059FB002902D11D2041
:100A900001F07FFD4B4800788007C00F002819D077
:100AA0003E4A3F4801780020FFF7A6FEC82005F027
:100AB00023F90121022002F00DF8C82005F01CF9ED
:100AC00057A005F0F9FB3F480078022188433D49D3
:100AD00008707EE7681C85B2192080018542CCDB56
:100AE0003848007802218843364908702B4A2C4840
:100AF00001780320FFF780FE0121022001F0EAFFC8
:100B000020480078022188431E4908704CA005F057
:100B1000D3FBD1E003202249087050A005F0CCFBA4
:100B200018480078400840001649087008460078C8
:100B300002218843801C134908700025ADE0002184
:100B4000032001F0C7FFC82005F0D6F810210920C6
:100B5000C00602F0CAFE012805D10021032001F0E1
:100B6000B9FF1B208AE096E00400002072656376DE
:100B7000204C4946455F5349474E414C5F434D44E5
:100B80000D0A000019000020726563762050494369
:100B90004B5F55505F434D440D0A0000100000208C
:100BA000180000207265637620554E4C4F434B4928
:100BB0004E475F424F4F4B5F4C4F434B5F434D445B
:100BC0000D0A000032000020756E6C6F636B2042CE
:100BD0004F4F4B5F4C4F434B20737563636573738B
:100BE0000D0A0000756E6C6F636B20424F4F4B5FB8
:100BF0004C4F434B206572720D0A0000726563769C
:100C000020554E4C4F434B494E475F524554555229
:100C10004E5F4C4F434B5F434D440D0A00000000B4
:100C2000756E6C6F636B2052455455524E5F4C4F3E
:100C3000434B20737563636573730D0A00000000F6
:100C4000756E6C6F636B2052455455524E5F4C4F1E
:100C5000434B206572720D0A0000000072656376D6
:100C600020554E4C4F434B494E475F4144445F4CE7
:100C70004F434B5F434D440D0A00000001F089FCD7
:100C8000EF4AF04801780020FFF7B6FD012103206C
:100C900001F020FF9DE6681C85B2032D00DA4EE7C7
:100CA000E74AE84801780320FFF7A6FD0121032069
:100CB00001F010FF00E000BF00BF50E0E079002825
:100CC00002D1E1A005F0F8FA49E0E079012810D15D
:100CD000E3A005F0F1FA1E2001F05BFC214608318B
:100CE0000020FFF76FFDE548007802218843E349C3
:100CF000087034E0E1480078082188430830DF4973
:100D00000870E079012809D1DDA005F0D5FA214667
:100D100008310020FFF73CFD01F0FEFB1FE0E07909
:100D2000002805D1DCA005F0C7FA0120E149C87010
:100D300015E0E079012804D1DFA005F0BDFAFFF746
:100D400012FD0CE0E079012807D1E1A005F0B4FA2A
:100D50000120D8490871FFF7FBFC00E000BF00BF8D
:100D600000BF36E692B000201190402101A805F0A6
:100D700020FA18E011AA0021DA48006804F09AFA73
:100D8000402101A805F015FAD7A005F095FADA4838
:100D90000278DA4901A805F0E5F901A8FFF763FD3B
:100DA000C82004F0A9FFE5E710B502210920C0061C
:100DB00002F09BFD01281DD1BE498870D048007803
:100DC000401CCF490870084600780A281EDDB94843
:100DD0000078002804D102F0DFF8CAA005F06CFA10
:100DE000B4484078002811D1CBA005F065FA02F094
:100DF000D3F80BE002210920C00602F076FD00289E
:100E000004D1AC498870C8A005F056FA10BDF8B5F9
:100E100004460D46002600272946C6A005F04CFAD8
:100E200000BF05E0A15DC9A005F046FA701CC6B27E
:100E3000AE42F7DBAAA005F03FFA00210120C00274
:100E400000F034FD2078552827D16078AA2824D1D5
:100E5000A0780002E1784018A8421ED1002604E0E4
:100E6000A05DC019C7B2701CC6B2681EB042F7DCE4
:100E7000205CB84211D10020B549086040219F484C
:100E800005F097F92A4621469C4805F06BF99A49E6
:100E90000D709448006804F0BFFAF8BDF0B5A3B037
:100EA00004460F4600260025002022902190802134
:100EB00001A805F07EF9229700BF2DE0605D55285E
:100EC00028D1681C205CAA2824D1A81C205C01021F
:100ED000E81C205C0818C6B2229886421ADC8021E1
:100EE00001A805F066F921982118324601A805F0FD
:100EF00039F9314601A8FFF78AFF2298801BC0B25A
:100F0000229021988019C0B221902298082801DAF5
:100F100023B0F0BD681CC5B2BD42CFDB00BFF7E710
:100F200038B5044600200090009401236A46002151
:100F30000F20FFF7CFFB38BD3EB504460D4600201D
:100F4000009001900290002C02D182A005F0B4F92B
:100F50004A480078C007C00F00280CD047480078E6
:100F60004007C00F002802D16946087006E0012042
:100F70006946087002E00220694608703F48007820
:100F8000C107C90F78A005F097F92A46214600A8A5
:100F9000013005F0E7F86B1C6A4602210F20FFF7CD
:100FA00099FB3EBD70B504460D46002C02D171A0E0
:100FB00005F082F92B46224606210F20FFF78AFB17
:100FC00070BD70B5A2B0802102A805F0F2F800262D
:100FD00000246DA00068019001255521684601722A
:100FE000AA214172284608300112684681722946BA
:100FF0000831C172012101730F21417301218173F5
:1010000000BF06E001A8015DE01D02AA1154601CAA
:10101000C4B2AC42F6DB0026002405E002A8005D65
:101020008019C6B2601CC4B2E81DA042F6DC02A959
:101030000E54411C02A800F09DFD22B070BD0000BE
:1010400010000020180000207265637620554D4284
:1010500052454C4C415F4D53475F434D440D0A0090
:101060007265637620474956455F4241434B5F4F67
:101070005645525F434D440D0A0000001900002000
:1010800072656376204144445F554D4252454C4C55
:10109000415F434D440D0A00726563762052454717
:1010A00049535445525F494E464F5F434D440D0AE4
:1010B000000000003300002072656376205359530E
:1010C0005F434845434B5F434D440D0A0000000019
:1010D0007265637620524553415452545F434D44E8
:1010E0000D0A000000000020726563762073696DB0
:1010F00020646174610D0A000E000020C00C002005
:101100000F000020346720636F6E666967206F767A
:1011100065720D0A00000000346720776F726B2043
:101120006572720D0A0000003467206572720D0A44
:101130000000000072656376206C656E203A2564BD
:1011400020646174613A0D0A0000000025782000D7
:101150001C000020756D6272656C6C615F64617467
:1011600061206572720D0A00204E4643203A2564C4
:101170000D0A000072656769737465725F6461745B
:1011800061206572720D0A00020000000020BE4955
:101190004870087088707047F7B5A0B006461446CE
:1011A0008021684605F005F800270025552168468E
:1011B0000170AA214170204608300004010E6846E3
:1011C000817020460830C1B26846C17006710F2197
:1011D00041710121817100BF06E02198415DE81D48
:1011E0006A461154681CC5B2A542F6DB00270025EB
:1011F00005E06846405DC019C7B2681CC5B2E01D75
:10120000A842F6DC69460F54401C81B2684600F0E3
:10121000B1FC23B0F0BD10B590B04021684604F099
:10122000C8FF002402206946087001221120FFF740
:10123000B3FF10B010BD10B59348407801280AD113
:10124000FFF78BF904219148FFF710F9FFF7E3FF4F
:1012500001208D4988708C48807801280BD10020AE
:10126000894988707D20C00004F046FD88A005F003
:1012700023F800F000F910BD38B5044600200090B6
:101280000094012269461420FFF786FF38BD10B58F
:1012900090B04021684604F08CFF0024012168468C
:1012A00001707A488178684641707848C17868460C
:1012B000817020227B49C01C04F054FF2322694620
:1012C0001120FFF769FF10B010BD38B50020009065
:1012D000002402200090012269461020FFF75CFFE5
:1012E00038BD10B590B04021684604F062FF00247C
:1012F00001206946087006226B49684404F032FFF9
:10130000072269461020FFF747FF10B010BDF0B567
:1013100095B005460E4600201490402104A804F024
:1013200048FF002003900121C80200F0BFFA00240A
:101330009CE0285D552878D1601C285CAA28FAD149
:10134000321B291904A804F00DFF6846C17C807C7B
:101350000002081880B2039000201490002707E0D4
:1013600004A8C15D14980818C0B21490781CC7B2C4
:101370000398401EB842F3DC0398401E04A9095CA0
:101380001498814270D16846007D102806D011283B
:1013900022D0132862D0142862D147E06846C07D6D
:1013A000012802D1FFF79DFF15E06846C07D0228A5
:1013B00011D16846017F407F000209186846C07E4F
:1013C000019100906846837E427E017E37A004F042
:1013D00073FFFFF77AFF44E06846C07D012802D121
:1013E000FFF755FF20E06846C07D02281CD1684603
:1013F000007E264988706846407EC870122206A981
:101400000231284804F0AEFE07220BA9254812300D
:1014100004F0A8FE07220CA903312248193004F079
:10142000A1FE0120184948701BE01DE06846C07D00
:10143000012807D10020144908706946C87DFFF7CC
:101440001BFF0AE06846C07D002806D101200E4936
:1014500008706946C87DFFF70FFF02E000F00BF847
:1014600000BF00BF15B0F0BD601CC4B2B44200DACA
:101470005FE700BFF6E7BFF34F8F13481349C8601B
:10148000BFF34F8F00BFFEE7000D002004000020D7
:101490004E5649435F53797374656D526573657435
:1014A0000D0A0000A00C00200800002069703A25F9
:1014B000642E25642E25642E256420706F72743A84
:1014C00025640D0A000000000400FA0500ED00E0AC
:1014D00041480078400840003F49087008460078BD
:1014E000022188433C49087008460078042188435B
:1014F0003949087008460078082188433649087041
:10150000084600781021884333490870704700244A
:10151000002500260027FFF7DBFF00F012FC5AE051
:101520002D4800788007C00F002816D000F098FBE7
:10153000294800780007C00F002801D000270CE0E0
:10154000781C87B24B200001874206DB0027224827
:1015500000780221884320490870681C85B21E4823
:101560000078C006C00F002815D02821304604F0AE
:10157000E5FD00290CD11A2001F00BF8601CC4B263
:101580000A2C05DB144800781021884312490870A2
:10159000701C86B201E000260024C821284604F011
:1015A000CDFD002914D10C480078082188430A4950
:1015B0000870084600784007C30F08460078000707
:1015C000C20F084600788007C10F04A004F074FE23
:1015D000322004F091FBA3E7190000206E66635FE0
:1015E000666C61672E73746172745F666C616720EC
:1015F0003D2025642C7570646174655F666C61675D
:10160000203D2025642C626F6F6B5F6261636B5FAE
:101610006C6F636B203D2025640D0A001CB500240F
:101620000026FFF7B3FD01F0DDF900F084FF01F0C3
:1016300087FBFEF75EFEFEF77AFE0121C80200F08E
:1016400035F90421524804F0B4FDFEF7CAFE5048B3
:10165000C07800904E488378427801784DA004F01D
:101660002BFEFEF722FF5B4BDA1F114612395AA000
:1016700004F022FE674880886649C978009101908D
:10168000644883784278017863A004F015FE7DE019
:10169000601CC4B20521204604F050FD00292ED163
:1016A0002546E00F401940104000201AC1B2012029
:1016B000000300F0FBF86148016861A004F0FCFD44
:1016C000701CC6B25D480068401C5C490860FFF7AA
:1016D0006BFBFFF7B0FD6248007901280DD10020B7
:1016E0005F49087100BFBFF34F8F5E485E49C86015
:1016F000BFF34F8F00BF00BFFEE7FEF765FD584800
:101700004078002816D01E21204604F017FD00293D
:1017100010D15348C078002805D120212D48193810
:10172000FFF740FC06E0454800680A2802D9304629
:10173000FFF7F6FB41480068282824D9484840793B
:10174000401C474948710846417948A004F0B4FD5F
:101750004348407903280DDB0020414948710121AD
:101760000920C00602F0DBF87D20400104F0C4FA35
:1017700001F0E6FA0121C80200F098F8002038498B
:1017800048702E490860C82004F0B6FA80E70000CF
:1017900004000020696E666F5F6265675F6279743E
:1017A000653D25642C696E666F5F6461745F736963
:1017B0007A653D25642C746F74616C5F6E756D3D48
:1017C00025642C6C6566745F6E756D3D25640D0A2D
:1017D00000000000B90C0020646576696365206331
:1017E0006F64653A2573200D0A736F6674776172B2
:1017F000655F76657273696F6E3A25730D0A68616D
:101800007264776172655F76657273696F6E3A258F
:10181000730D0A000800002064657669636520691D
:10182000703A25642E25642E25642E2564202070B0
:101830006F72743A25640D0A000000001C0000203D
:1018400073696D373630305F636F6E6E745F6572CB
:10185000725F636E74203D2025640D0A0000000055
:10186000330000200400FA0500ED00E073696D37D5
:101870003630305F666C61672E7265636F6E6E65C1
:1018800063745F636E743A25640D0A0010B50446F4
:1018900021460920C00602F042F810BD10B50446EA
:1018A00021460920C00602F03CF810BD70B505467F
:1018B0000C46002C03D02846FFF7F0FF02E0284634
:1018C000FFF7E4FF70BD1CB50121480401F0E9FEFB
:1018D0003120C00100900121684601710021817111
:1018E0000221417169460920C00601F09BFF3121A8
:1018F000C9010920C00602F014F81CBD002105E052
:10190000002200E0521C082AFCDB491C8142F7DB64
:101910007047002107E0002200E0521C7D239B015C
:101920009A42FADB491C8142F5DB7047014600BF51
:10193000704702469D48007800280CD100BF9C48A3
:10194000C069402318400028F9D0D0B2984B20330A
:101950001881104670470020FCE71CB5012148049F
:1019600001F09FFE01220921C80601F0E4FF0122D7
:101970000A210920C00601F0DEFF0320400200908A
:101980000221684601710321417100218171012109
:10199000C17169460920C00601F044FF1CBD00B5B5
:1019A00087B00121880301F08AFE4B20C00101901D
:1019B000002002900390049006900C20059001A94D
:1019C0007B4802F001F81B21684601700321417039
:1019D0000121817002F0E4FB01227649744802F093
:1019E0000DFA01227449724802F008FA0121704888
:1019F00002F073F807B000BD10B594B004460121A1
:101A0000084601F04EFE0121880301F058FE012135
:101A1000480401F046FE01220921C80601F08BFFAF
:101A200001220A210920C00601F085FF032040029F
:101A30000C90022108A801750321417500218175D0
:101A40000121C1750CA90920C00601F0EBFE0E941E
:101A500000200F901090119013900C2012900EA95E
:101A6000534801F0B1FF1B2168460170032141700A
:101A70000121817002F094FB01224F494C4802F091
:101A8000BDF9012240214A4802F0A5F91021484839
:101A900002F0F2F90121464802F01FF8474802F02F
:101AA0001DFA4348243001904048C01C0290002099
:101AB0000390402004900020059080200690002094
:101AC000079008900990032000030A9000200B90D3
:101AD00001A93A4802F04EFA0120400202F09CFAB5
:101AE00001220821354802F081FA0121334802F031
:101AF0006BFA14B010BD70B500252F492C4802F0C8
:101B0000BDF9002822D0002400261021284802F028
:101B1000B3F90021294802F057FA284802F062FA86
:101B20004021081A84B2E1B22048C01CFFF7EFFB45
:101B300040211E48C01C04F03CFB40211F4802F01D
:101B40004FFA01211D4802F03FFA00BF70BD10B5E9
:101B5000E1204002FFF750FF10BD00BF1449C969E2
:101B6000802211400029F9D0C105C90D104A203248
:101B70001181704710B503460C4603E01878FFF753
:101B8000ECFF5B1C2046611E8CB20028F6D110BD14
:101B900000B5034603E01878FFF7DFFF5B1C1878F9
:101BA0000028F8D10A20FFF7D8FF00BD000D002063
:101BB0000038014005010500040104003000024026
:101BC0003EB50546002442E0285DC117090F0918FB
:101BD000091162006B46995460006946085C092847
:101BE00006DD6000085C373061006A46505406E04C
:101BF00060006946085C303061006A465054285DD8
:101C0000C117090F091809110901411ACAB2610067
:101C1000491C6B465A546000401C6946085C092800
:101C200009DD6000401C085C3730C1B26000401C18
:101C30006A46115409E06000401C6946085C303077
:101C4000C1B26000401C6A461154601CC4B2042C2E
:101C5000BADB0020694608723EA004F02DFB3EBDB1
:101C600010B500244049522000F037FA3F4908706F
:101C70000846007800280DD13D4800F059FA3B494C
:101C800008703B48FFF79CFF04213948FFF754F9DF
:101C9000012010BD0020FCE710B50A2000F0DEFB9B
:101CA00000F0ACFB00F014FC00F0CAFB412000F097
:101CB000E1FB10BD70471CB501210320400401F079
:101CC000F0FC102000900021684601710221417152
:101CD0006946284801F0A6FD2020009001216846B1
:101CE000017100218171022141716946214801F091
:101CF00099FD082000900121684601710021817141
:101D00000221417169461B4801F08CFD0120C0038E
:101D10000090012168460171022141716946092044
:101D2000C00601F07FFD402000900121684601714E
:101D3000002181710221417169460E4801F072FD56
:101D40001CBD10B5FFF7B7FFFFF7B4FFFFF7A4FF07
:101D500010BD0000526561642043617264204944F3
:101D6000203A2573200000002500002024000020D8
:101D70002700002000040048F8B507460D4608215A
:101D8000FC4801F0CEFDFC480078C007C00F0028D9
:101D90000AD00121C9030920C00601F0C2FD40217B
:101DA000F44801F0BCFD09E04021F24801F0B9FD22
:101DB0000121C9030920C00601F0B1FD7E007E218A
:101DC0000E40082418E080203040002804D0202154
:101DD000E84801F0A4FD03E02021E64801F0A1FD60
:101DE0000821E44801F09BFD7006060E0821E14839
:101DF00001F097FD601EC4B2002CE4DC082418E05A
:101E000080202840002804D02021DA4801F087FDF6
:101E100003E02021D74801F084FD0821D54801F0D6
:101E20007EFD6806050E0821D24801F07AFD601E8D
:101E3000C4B2002CE4DCD0480078C007C00F0028F2
:101E40000AD00121C9030920C00601F068FD402124
:101E5000C84801F064FD09E04021C64801F05FFD7B
:101E60000121C9030920C00601F059FD0821C1481C
:101E700001F055FDF8BDF8B507460026BE480078CC
:101E8000C007C00F00280AD00121C9030920C006DD
:101E900001F047FD4021B74801F041FD09E0402134
:101EA000B44801F03EFD0121C9030920C00601F03C
:101EB00036FD78007E21084005468035082418E06C
:101EC0000821AC4801F02DFD80202840002804D0D6
:101ED0002021A84801F023FD03E02021A54801F0BE
:101EE00020FD0821A34801F01AFD6806050E601EBA
:101EF000C4B2002CE4DC082412E008219D4801F063
:101F000010FD7006060E08219A4801F008FD102108
:101F1000984801F0EAFC012800D10643601EC4B2D3
:101F2000002CEADC94480078C007C00F00280AD0D3
:101F30000121C9030920C00601F0F1FC40218D48B0
:101F400001F0EDFC09E040218A4801F0E8FC0121A4
:101F5000C9030920C00601F0E2FC0821854801F010
:101F6000DEFC3046F8BD70B505460C460026284616
:101F7000FFF781FF06463046204301462846FFF71B
:101F8000FBFE70BD70B505460C4600262846FFF7DF
:101F900072FF06463046A04301462846FFF7ECFE96
:101FA00070BDFFB583B00646FE2002900020019070
:101FB00000900C2E06D00E2E09D112200190102078
:101FC000009005E0772001903020009000E000BFF5
:101FD00000BF80220198104301460220FFF7CCFE8B
:101FE00080210420FFF7CEFF00210120FFF7C4FE6F
:101FF00080210A20FFF7B7FF002505E00498415D26
:102000000920FFF7B9FE6D1C05988542F6D33146CD
:102010000120FFF7B1FE0C2E03D180210D20FFF728
:10202000A2FF7D252D0100BF0420FFF724FF0446F9
:102030006D1E002D07D0E007C00F002803D10098C7
:1020400020400028F0D080210D20FFF79BFF002DBD
:1020500038D00620FFF70FFF1B21084000282FD1A2
:10206000029001982040C007C00F002801D0FF2037
:1020700002900C2E26D10A20FFF7FDFE04460C200C
:10208000FFF7F9FE47077F0F002F05D0601EC00045
:10209000C1190C98016002E0E1000C980160002C6D
:1020A00000D10124122C00DD1224002505E00920B6
:1020B000FFF7E1FE069948556D1CA542F7D301E0F4
:1020C000FE20029080210C20FFF74DFF002101200F
:1020D000FFF752FE029807B0F0BD70B588B0054614
:1020E0000C4608210846FFF74DFF07210D20FFF79A
:1020F00043FE03211420FFF736FF6846057207A848
:1021000002AB012202A900900C20FFF74AFF06460D
:10211000002E09D10798102806D16846007A207051
:102120006846407A607000E0FE26304608B070BD18
:10213000F0B587B00546002708210846FFF722FFC3
:1021400000210D20FFF718FE80210E20FFF71AFF57
:102150009321684601712021417106A801AB02223A
:1021600001A900900C20FFF71CFF0646002E14D199
:1021700000240BE0000400481900002001A8005DC5
:10218000285501A8005D4740601CC4B2042CF5DB53
:1021900001A8005DB84200D0FE2680210E20FFF786
:1021A000E2FE304607B0F0BDF7B5074615460421FC
:1021B0000520FFF7E7FE00210120FFF7DDFD80216C
:1021C0000A20FFF7D0FE002405E0395D0920FFF763
:1021D000D3FD601CC4B201988442F6DB03210120C8
:1021E000FFF7CAFDFF2400BF0520FFF744FE0646A7
:1021F000601EC4B2002C03D0042030400028F3D06D
:102200002220FFF738FE28702120FFF734FE687087
:10221000FEBD70B588B005469321684601727021F5
:1022200041720021817300240BE0295D02AAA01CE9
:1022300011546946887B295D484069468873601C53
:10224000C4B2042CF1DB03AA0332072102A8FFF772
:10225000ABFF08210846FFF795FE07A802AB09224D
:1022600002A900900C20FFF79CFE0646002E03D129
:102270000798182800D100E0FE26304608B070BD4F
:10228000FFB587B006460F466846067147710024C1
:1022900006E00998015D01AAA01C1154601CC4B29B
:1022A000062CF6DB002407E00A98015D01AA20460F
:1022B00008301154601CC4B2062CF5DB06A801AB33
:1022C0000C2201A900900E20FFF76BFE0546002DA1
:1022D00006D10820FFF7CFFD08210840002800D1D3
:1022E000FE2528460BB0F0BDF0B587B005460E467A
:1022F0003021684601714571821D022101A8FFF756
:1023000053FF06A801AB042201A900900C20FFF79F
:1023100048FE0746002F0CD10698902809D10024CA
:1023200004E001A8005D3055601CC4B2102CF8DB3D
:1023300000E0FE27384607B0F0BDF0B587B006468E
:102340000F46A021684601714671821D022101A835
:10235000FFF72AFF06A801AB042201A900900C2078
:10236000FFF71FFE0546002D08D10698042805D169
:10237000684600790007000F0A2800D0FE25002DCE
:1023800022D1002404E0385D01A90855601CC4B2C4
:10239000102CF8DB05AA102101A8FFF705FF06A8FD
:1023A00001AB122201A900900C20FFF7FAFD0546AF
:1023B000002D08D10698042805D168460079000749
:1023C000000F0A2800D0FE25284607B0F0BD00B552
:1023D00087B050216846017100214171821D0221A0
:1023E00001A8FFF7E1FE06A801AB042201A90090B5
:1023F0000C20FFF7D6FD002007B000BD10B502206D
:10240000FFF739FD0F210120FFF7B6FC3D21112018
:10241000FFF7B2FC1E212D20FFF7AEFC00212C207F
:10242000FFF7AAFC8D212A20FFF7A6FC3E212B20D6
:10243000FFF7A2FC40211520FFF79EFC002010BDF5
:1024400010B51420FFF717FD0446A007800F0028E1
:1024500003D103211420FFF786FD10BD002106E003
:10246000002200E0521C2B4B9A42FBD3491C8142B4
:10247000F6D3704710B50446412C25D108210846F3
:10248000FFF780FD3D211120FFF776FC8621172004
:10249000FFF772FC7F212620FFF76EFC1E212D2006
:1024A000FFF76AFC00212C20FFF766FC8D212A2013
:1024B000FFF762FC3E212B20FFF75EFC0120FFF7B7
:1024C000CDFFFFF7BDFF01E0FF2010BD0020FCE7BE
:1024D00010B503211420FFF755FD10BD38B518E0E5
:1024E00069465220FFF7F9FD0446002C0ED06946DC
:1024F0005220FFF7F2FD0446002C07D06946522017
:10250000FFF7EBFD0446002C00D038BD6420FFF738
:10251000A5FFE5E760EA000010B540210920C006EC
:1025200001F0FDF9C82003F0E7FB40210920C006B7
:1025300001F0F7F910BD1CB50121880401F0B1F8D4
:102540000220009001216846017100218171022161
:10255000417169462E4801F065F940200090012143
:10256000684601710021817102214171694609208B
:10257000C00601F057F90221254801F0D2F90221E5
:10258000234801F0CCF940210920C00601F0C9F927
:102590001CBD70B504460026002502211C4801F030
:1025A000BEF902211A4801F0BCF90220FFF7B1F987
:1025B000254600BF25E0E807C00F00280FD0022104
:1025C000134801F0ACF9FF202D30FFF797F90221F5
:1025D0000F4801F0A6F96420FFF790F90EE0022100
:1025E0000B4801F09CF96420FFF788F902210848A4
:1025F00001F097F9FF202D30FFF780F96D10701C66
:10260000C6B2082ED7DB0221014801F088F970BD5F
:102610000004004810B501210903EF4801F081F9D9
:102620000620FDF76CFE01210903EB4801F077F964
:1026300010BD10B501210903E74801F072F904202B
:10264000FDF75DFE01210903E34801F068F910BDC3
:1026500010B501210903E04801F063F90520FDF7F9
:102660004EFEFF20FDF74BFE044601210903DA4828
:1026700001F055F9204610BD10B50446FFF7CAFF1A
:102680000120FDF73CFE2046FDF739FE012109033C
:10269000D14801F044F910BD70B505460C46164608
:1026A00001210903CC4801F03CF90320FDF727FE86
:1026B0002102080EFDF723FE2104080EFDF71FFE80
:1026C000E0B2FDF71CFE04E0FF20FDF718FE2870C5
:1026D0006D1C3046711E8EB20028F5D10121090310
:1026E000BD4801F01CF970BD70B505460C46164694
:1026F00001210903B84801F014F90B20FDF7FFFD93
:102700002102080EFDF7FBFD2104080EFDF7F7FD81
:10271000E0B2FDF7F4FDFF20FDF7F1FD04E0FF203E
:10272000FDF7EDFD28706D1C3046711E8EB200283D
:10273000F5D101210903A84801F0F1F870BD10B5E9
:1027400000BFFFF785FFC007C00F0028F9D110BDFB
:1027500070B505460C461646FFF75CFF01210903DC
:102760009D4801F0DEF80220FDF7C9FD2102080EA8
:10277000FDF7C5FD2104080EFDF7C1FDE0B2FDF730
:10278000BEFD03E02878FDF7BAFD6D1C3046711ED2
:102790008EB20028F6D1012109038F4801F0BFF85D
:1027A000FFF7CDFF70BDF8B507460E461446F0B2F0
:1027B000FF2101310D1AAC4200DC254612E02A4609
:1027C00031463846FFF7C4FFAC4200D10BE07F1919
:1027D0007619601B84B2FF200130844201DD05467A
:1027E00000E02546EBE700BFF8BD10B50446240322
:1027F000FFF710FFFFF7A3FF01210903764801F05F
:1028000090F82020FDF77BFD2102080EFDF777FDF3
:102810002104080EFDF773FDE0B2FDF770FD012104
:1028200009036D4801F07BF8FFF789FF10BDF7B58C
:102830006A4B9D440F461646390B01913905090D27
:1028400000910121090300980C1AA64200DC3446CD
:102850004DE0019801030122120302A8FFF71CFFBB
:10286000002508E00098401902A9085CFF2800D064
:1028700003E0681C85B2A542F4DB00BFA54217DA6D
:102880000198FFF7B2FF002509E0554868448068C9
:10289000425D0099481902A90A54681C85B2A542F4
:1028A000F3DB019801034E4A02A8FFF77CFF06E024
:1028B000224639464A4868448068FFF774FFA642BA
:1028C00002D1FFF7B6FE13E00198411C01910021EF
:1028D0000091434868448168091981603F19301BA1
:1028E00086B23F48864201DD044600E03446B0E748
:1028F00000BF3B4B14339D44F0BD10B50446240487
:10290000FFF788FEFFF71BFF3549334801F009F850
:10291000D820FDF7F4FC2102080EFDF7F0FC21049D
:10292000080EFDF7ECFCE0B2FDF7E9FC2C492A4863
:1029300000F0F5FFFFF703FF10BD10B5FFF76AFECB
:10294000FFF7FDFE2649244800F0EBFFC720FDF706
:10295000D6FC2349204800F0E2FFFFF7F0FE10BD4F
:1029600010B51F491C4800F0DCFFB920FDF7C7FC7B
:102970001B49194800F0D3FF10BD10B5184916487F
:1029800000F0CFFFAB20FDF7BAFC1549124800F06C
:10299000C6FF10BD10B5002411490F4800F0C1FF5B
:1029A0009020FDF7ACFC0020FDF7A9FC0020FDF70E
:1029B000A6FC0020FDF7A3FCFF20FDF7A0FC000211
:1029C0000443FF20FDF79BFC04430549024800F047
:1029D000A6FF204610BD000000040048F8EFFFFFEE
:1029E0000010000000B585B001210320400400F074
:1029F00058FE0720C00103900121684601740021A0
:102A000081740221417403A96A4800F00BFF012080
:102A1000039000216846017481740221417403A966
:102A2000644800F0FFFE30200390002168460174E6
:102A300081740221417403A90920C00600F0F2FE4E
:102A4000072168460170002141700121817001F069
:102A5000A7FB102001900021684601720C214172F1
:102A60000121817201A801F0FBFA0421002001F08C
:102A70000BFE202001900021684601720C2141725A
:102A80000121817201A801F0EBFA0521002001F07B
:102A9000FBFD494800784008400047490870084657
:102AA0000078022188434449087005B000BD10B584
:102AB0008021404800F033FF00210120C002FEF7D2
:102AC000F5FE7D200001FEF724FF8021394800F04B
:102AD00028FF10BD70B505460C46002C01D1FFF74C
:102AE0001BFD012D04D0022D0ED0032D28D119E09D
:102AF000002C04D180212F4800F011FF03E0802139
:102B00002C4800F00EFF1CE0002C05D1FF21013104
:102B1000284800F004FF04E0FF210131254800F0BF
:102B200000FF0EE0002C05D101214902214800F0F0
:102B3000F6FE04E0012149021E4800F0F2FE00E02A
:102B400000BF00BF70BD10B501F0EAFF1B4840692F
:102B500010210840002810D010201849486118A002
:102B600003F0AAFB1448007840084000401C1249BA
:102B7000087018481149486119E01048406920213F
:102B80000840002810D020200C49486112A003F012
:102B900093FB0948007802218843801C064908708D
:102BA0000C480649486102E00A480449486101F0BE
:102BB000D2FF10BD00040048320000200004014094
:102BC0007265637620455854495F4C696E65340AD6
:102BD00000000000F0FF0000726563762045585445
:102BE000495F4C696E65350A000000000020FE490F
:102BF000087048708870C87008714871704710B5C7
:102C000094B004460121084600F04BFD0121480420
:102C100000F063FD0121480400F043FD0122022180
:102C20000920C00600F087FE012203210920C0060A
:102C300000F081FE0C200C90022108A801750321F0
:102C40004175002181750121C1750CA90920C006BB
:102C500000F0E8FD0E9400200F901090119013905A
:102C60000C2012900EA9E14800F0AEFE1C2168462F
:102C70000170022141700121817001F091FA01225D
:102C8000DB49DA4801F0BAF801224021D74801F0C7
:102C9000A2F81021D54801F0EFF80121D34800F047
:102CA0001CFFD44801F01AF9D04824300190D248D2
:102CB0000290002003904020049000200590802086
:102CC00006900020079008900990032000030A90C6
:102CD00000200B9001A9C74801F04CF901204004E5
:102CE00001F09AF901220821C24801F07FF901217F
:102CF000C04801F069F914B010BD1CB501214804A9
:102D000000F0CFFC022000900021684601710321F1
:102D1000417169460920C00600F084FD0120009041
:102D20000121684601710221417169460920C006EE
:102D300000F078FD01210920C00600F0F2FD1CBD65
:102D400010B5FFF7DAFFE1204002FFF758FFFFF769
:102D50004DFF10BD00B58BB00121084600F0A1FC6D
:102D6000A448143801F0BAF8A04828300090A348CD
:102D700001901020029040200390002004908020B9
:102D8000059000200690079008900320000309900A
:102D900000200A9069469748143801F0EBF80122A8
:102DA0008021924801F017F800219248143801F070
:102DB0000BF9904801F092F88C48243000908E482E
:102DC0000190002002904020039000200490802079
:102DD00005900020069007900890032000030990BA
:102DE00000200A906946834801F0C4F80121814817
:102DF00001F0EAF80BB000BD00BF7C49C969802230
:102E000011400029F9D0C105C90D784A203211813D
:102E1000704710B503460C4603E01878FFF7ECFF47
:102E20005B1C2046611E8CB20028F6D110BD70B527
:102E300004460D46214672A003F03EFAA9B2204690
:102E4000FFF7E7FF70BD10B5052170A0FFF7EFFF9A
:102E500010BD10B504216FA0FFF7E9FF10BD10B53C
:102E600009216DA0FFF7E3FF10BD10B51C216DA077
:102E7000FFF7DDFF10BD10B50F2171A0FFF7D7FFE1
:102E800010BD10B50E2172A0FFF7D1FF10BD10B517
:102E90000D2173A0FFF7CBFF10BD10B5102174A05A
:102EA000FFF7C5FF10BD7CB505460C46164613223C
:102EB00073A1284603F010FA76A1284603F084F99E
:102EC000227875A1684603F007FA6946284603F0A0
:102ED0007BF972A1284603F077F962786EA1684603
:102EE00003F0FAF96946284603F06EF96BA128460B
:102EF00003F06AF9A27868A1684603F0EDF9694623
:102F0000284603F061F965A1284603F05DF9E278EF
:102F100061A1684603F0E0F96946284603F054F9D8
:102F20005FA1284603F050F932465BA1684603F0E2
:102F3000D3F96946284603F047F944A1284603F02F
:102F400043F97CBD10B590B056488288014668466A
:102F5000FFF7A9FF684603F043F9441C2146684681
:102F6000FFF765FF10B010BD10B50E214EA0FFF7A2
:102F70005EFF10BD10B50D214FA0FFF758FF10BD2B
:102F800010B5062150A0FFF752FF10BD10B5062165
:102F90004FA0FFF74CFF10BD10B54FA003F08CF908
:102FA0007D20000102F0A8FEFFF753FF7D20C00046
:102FB00002F0A2FEFFF765FF7D20C00002F09CFE3C
:102FC000FFF753FF7D20C00002F096FEFFF753FF8E
:102FD0007D20C00002F090FEFFF759FF7D20C00069
:102FE00002F08AFE86E0000033000020004400402A
:102FF0000401040058000240830D0020430D00200E
:1030000053656E64436D643A2573000041540D0AA4
:10301000000000002B2B2B0041542B4353510D0A71
:103020000000000041542B434744434F4E543D3170
:103030002C224950222C22434D4E4554220D0A0089
:1030400041542B4349504D4F44453D310D0A00003A
:1030500041542B4E4554434C4F53450D0A0000003C
:1030600041542B4E45544F50454E0D0A0000000070
:1030700041542B43495052584745543D310D0A00A5
:1030800041542B4349504F50454E3D302C22544320
:1030900050222C0022000000256400002E000000B9
:1030A000222C00000800002041542B4349504F506F
:1030B000454E3F0D0A00000041542B4349505348F0
:1030C00055540D0A000000004154450D0A0000004F
:1030D00041544F0D0A0000007374617274207369CB
:1030E0006D3736303063655F636F6E6669672E2EAD
:1030F0002E0D0A00FFF726FF7D20C00002F0FCFD28
:10310000FFF744FFE1204002FFF779FD7D20C0007A
:1031100002F0F2FD01201F49087048700020C870BD
:1031200010BD08B51C2168460170022141700121C3
:10313000817001F035F808BD70B5002501F0F0FC94
:103140001549164800F09AFE002820D000240026D9
:103150001021124800F090FE0021114800F034FFC9
:103160000F4800F03FFF4021081A84B2E1B20D4839
:10317000FDF794FE40210B4803F01BF8402108485E
:1031800000F02EFF0121064800F01EFF00BF01F0F5
:10319000E2FC70BD33000020040104000044004044
:1031A00058000240830D0020FD48006801210843BB
:1031B000FB49086008464068FA490840F8494860F9
:1031C00008460068F8490840F54908600846006864
:1031D000012189048843F2490860084640683F217C
:1031E00009048843EE4948600846C06A00090001A6
:1031F000C8620846006BFF2154318843E8490863E0
:103200000846406B400840004863002088607047D3
:103210000021E34A917011468870704710B502464C
:103220000021002300205111002902D1DC4C236829
:103230000BE0012902D1DA4C236A06E0022902D10F
:10324000D74C636A01E0D64C636BD106C90E0124EA
:103250008C401C40002C01D0012000E0002010BD5B
:1032600038B5002000900024002500BF1120FFF792
:10327000D5FF05460098401C0090052109020098E2
:10328000884201D0002DF1D01120FFF7C7FF0028A0
:1032900001D0012400E00024204638BD0146002072
:1032A000BF4A1068F82302469A431046CA001043EA
:1032B000BB4A10607047002806D0B949096801224E
:1032C0001143B74A116005E0B5490968490849004A
:1032D000B34A1160704701460020B14A506BF82391
:1032E00002469A431046CA001043AD4A50637047E5
:1032F000002806D0AA49496B01221143A84A51630C
:1033000005E0A749496B49084900A54A5163704740
:10331000002806D0A249496B04229143A04A516378
:1033200005E09F49496B042211439D4A5163704750
:103330009B49096A49084900994A11621146096A7C
:1033400004229143964A11621146096A01431162AF
:1033500070479349096A18229143914A11621146B4
:10336000096A014311627047002806D08C49496AF6
:10337000012211438A4A516205E08949496A490894
:103380004900874A51627047854A52683D231B04B1
:103390009A43834B5A601A46526803460B431A43BA
:1033A0007F4B5A607047002807D07D490968012289
:1033B000120611437A4A116006E079490968012230
:1033C00012069143764A1160704701460020744A04
:1033D000D06A0009000102460A431046704AD062D2
:1033E0007047002807D06E4909680122D2041143B2
:1033F0006B4A116006E06A4909680122D2049143D0
:10340000674A116070476649C871704701460020DD
:10341000634A50688008800002460A431046604AAA
:10342000506070475E4840680C2108407047014674
:1034300000205B4A5068F02302469A431046024639
:103440000A431046564A5060704701460020544ACD
:10345000506807231B0202469A43104602460A435D
:1034600010464F4A506070474D4949680122920307
:1034700091434B4A51601146496882B21143484A10
:1034800051601146096B92159143454A11631146EB
:10349000096B020C1143424A116370474049096BA2
:1034A000402291433E4A11631146096B0143116367
:1034B00070473B49096B10229143394A1163114609
:1034C000096B0143116370473549096B890889000D
:1034D000334A11631146096B014311637047FEB50E
:1034E00004460025002600200190009000272C486B
:1034F00040680C2108400546002D04D0042D05D05D
:10350000082D28D105E02948206027E027482060C1
:1035100024E0234840680F218904084006462048DB
:1035200040680121090408400190B00C861C0198F4
:10353000002803D11E48704320600BE01848C06A81
:103540000007000F401C00901848009902F0E0FDB1
:103550007043206002E01548206000BF00BF1048A3
:103560004068F021084005462D091248475D206853
:10357000F84060600A484068072109020840054693
:103580002D0A0C48475D6068F840A0600448006B55
:10359000FF2101310840884210D00748E0601BE05D
:1035A000001002400CB8FFF8FFFFF6FE00127A0090
:1035B00000093D003A000020809FD5007548406812
:1035C000012189030840884203D0A0684008E060D8
:1035D00002E0A0688008E0606E48006B402108406F
:1035E000402802D06C48206102E00120C003206125
:1035F0006848006B10210840102802D067486061BD
:1036000001E0206860616348006B8007800F00283C
:1036100002D1A068A06119E05E48006B8007800FAE
:10362000012802D12068A06110E05A48006B800791
:10363000800F022802D18003A06107E05548006B8B
:103640008007800F032801D15448A061FEBD514975
:10365000096A01434F4A11627047002807D04D495B
:10366000096A0122D20311434A4A116206E049491C
:10367000096A0122D2039143464A11627047002829
:1036800007D04449096A012212041143414A1162D8
:1036900006E04049096A0122120491433D4A116241
:1036A0007047002905D03B4A52690243394B5A61A1
:1036B00004E0384A52698243364B5A617047002908
:1036C00005D0344A92690243324B9A6104E0314A90
:1036D000926982432F4B9A617047002905D02D4A89
:1036E000D26902432B4BDA6104E02A4AD269824351
:1036F000284BDA617047002905D0264A926A0243B6
:10370000244B9A6204E0234A926A8243214B9A62D4
:103710007047002905D01F4AD26802431D4BDA606A
:1037200004E01C4AD26882431A4BDA6070470029D1
:1037300005D0184A12690243164B1A6104E0154A73
:1037400012698243134B1A617047002905D0114A50
:10375000527A02430F4B5A7204E00E4A527A824365
:103760000C4B5A7270470B48406A01210906084306
:1037700008494862704701460020064A92680A409C
:10378000002A01D0012000E0002070470149887222
:1037900070470000001002401280000000127A0002
:1037A00010B504460920C006844209D1012148040D
:1037B000FFF7A1FF002101204004FFF79CFF30E04C
:1037C0006E48844208D101210002FFF794FF0021D6
:1037D0002002FFF790FF24E06948844208D10121CC
:1037E0000002FFF788FF00212002FFF784FF18E0A6
:1037F0006448844209D101210805FFF77CFF0021BC
:1038000001200005FFF777FF0BE05F48844208D1F5
:1038100001218805FFF76FFF002101208005FFF7D8
:103820006AFF10BDF0B50A4600210023002400BF46
:103830003DE001258D402B4615681D402C469C42DD
:1038400034D11579012D02D01579022D16D1856854
:103850004F000326BE40B543856055794E00B54004
:10386000866835438560858801268E40B54385800E
:10387000858896798E40B6B23543858005684F00BD
:103880000326BE40B543056015794E00B540066875
:1038900035430560C5684F000326BE40B543C5608B
:1038A000D5794E00B540C6683543C560491C10291E
:1038B000BFD3F0BD35490160002101710221417182
:1038C00000218171C171704708B501221204009274
:1038D000009A0A430092009AC261C161009AC261D3
:1038E000C2690092C269009208BD02460020138A94
:1038F0000B40002B01D0012000E000207047014662
:10390000088A704702460020938A0B40002B01D0A2
:10391000012000E0002070470146888A70478161DD
:10392000704701857047002A01D0816100E0018560
:10393000704781827047F0B5002300244D07EE0EDA
:103940001546B5402B46CD10AE0005462035AD5985
:103950004E07F70E0F26BE40B543CE10B600074601
:103960002037BD51CD10AE003D46AD591D432C460C
:10397000CD10AD003E467451F0BD0000000400487B
:1039800000080048000C004800140048FFFF000039
:1039900010B50446F648844209D101218803FFF797
:1039A000B8FE002101208003FFF7B3FE0BE0F148D1
:1039B000844208D101214804FFF7B9FE002101200B
:1039C0004004FFF7B4FE10BDF0B589B004460D46C3
:1039D0000027002008900026206840084000206052
:1039E000666803210903304688430646A8680643F3
:1039F00066602668E0480640E96868680843296907
:103A0000084306432660A66803210902304688431E
:103A1000064668690643A66001A8FFF760FDD44822
:103A2000844202D10798089001E00398089020682A
:103A30000121C903084000280CD02968089A5000C9
:103A400002F066FB07462968089A500002F060FB06
:103A50000E4609E02968089802F05AFB07462968D3
:103A6000089802F055FB0E4628684008B04200D87E
:103A70007F1C20680121C9030840002806D03807B0
:103A8000460F3846BD49084030430746A78109B074
:103A9000F0BD4B21C9010160002141608160C1601E
:103AA0000C21016100214161704710B5002242687C
:103AB0000F2424021346A3431A464C680B68234381
:103AC0008C682343CC6823431A43426010BD002115
:103AD000016041608160C1607047002904D00268C4
:103AE00001231A43026003E0026852085200026098
:103AF0007047002A03D003680B43036002E00368A9
:103B00008B4303607047002905D002680123DB0363
:103B10001A43026004E002680123DB039A43026057
:103B20007047002905D082680123DB021A438260B6
:103B300004E082680123DB029A4382607047002917
:103B400005D042680123DB041A43426004E0426866
:103B50000123DB049A4342607047002905D0426884
:103B600001239B041A43426004E0426801239B0442
:103B70009A4342607047002A03D043680B43436076
:103B800002E043688B4343607047002905D04268D8
:103B90000123DB031A43426004E042680123DB0394
:103BA0009A4342607047002905D042680123DB0533
:103BB0001A43426004E042680123DB059A434260F5
:103BC00070474269120E1206426142690A4342611D
:103BD0007047028AFF231B021A400282028A0A43AC
:103BE00002827047002904D0026802231A4302604F
:103BF00003E0026802239A4302607047826803234D
:103C00001B059A43826082680A43826070470029DC
:103C100005D0426801231B051A43426004E0426854
:103C200001231B059A4342607047426803235B05EA
:103C30009A43426042680A4342607047CA05D20D07
:103C4000028570470146888CC005C00D70474268E8
:103C50001202120A426042680B061A434260704721
:103C6000002905D0026801235B031A43026004E0C7
:103C7000026801235B039A430260704702680123D4
:103C8000DB029A43026002680A430260704742689E
:103C900010239A43426042680A4342607047426878
:103CA00020239A43426042680A43426070470029D9
:103CB00005D0426801239B031A43426004E0426836
:103CC00001239B039A4342607047002904D0826815
:103CD00008231A43826003E0826808239A438260C3
:103CE0007047028AD2B20282028A0B021A4302820F
:103CF0007047002904D0826820231A43826003E0C1
:103D0000826820239A4382607047002904D0826829
:103D100010231A43826003E0826810239A43826072
:103D20007047826807235B049A43826082684B0471
:103D30001A438260704742691202120A4261426964
:103D40000B061A4342617047826804239A438260DB
:103D500082680A4382607047002904D08268022387
:103D60001A43826003E0826802239A4382607047AC
:103D70000038014000440040F3E9FFFFF0FF00007D
:103D8000002905D0826801239B031A43826004E066
:103D9000826801239B039A438260704782680123F3
:103DA000DB039A43826082680A438260704702683C
:103DB0001F235B059A43026002684B051A430260A9
:103DC000704702681F231B049A43026002680B04B9
:103DD0001A4302607047002A03D083680B43836054
:103DE00002E083688B4383607047826801235B0332
:103DF0009A43826082680A4382607047F8B503463E
:103E00000024002600960025002018460E04340EDB
:103E1000CEB200960127009EB7403D46022C01D14C
:103E2000001D02E0032C00D10830002A03D00668F0
:103E30002E43066002E00668AE430660F8BD002A25
:103E400003D0038B0B43038302E0038B8B43038379
:103E50007047826801231B039A43826082680A4389
:103E60008260704702460020D3690B40002B01D0CE
:103E7000012000E0002070470162704770B50246E3
:103E80000B4600240021002500201E04350ED9B267
:103E900001268E403146012D02D11668314006E0E0
:103EA000022D02D15668314001E0966831401C0C69
:103EB0000126A6403446D6693440002903D0002CA0
:103EC00001D0012000E0002070BD10B500230022C9
:103ED0000B0C01249C402246026210BD0168584A26
:103EE000114001600021016041608160C16055495D
:103EF000884208D15349083949680F221143514A71
:103F0000083A516035E04F491431884208D14D4993
:103F100008394968F02211434A4A083A516028E0BA
:103F200048492831884209D14649083949680F2251
:103F300012021143434A083A51601AE041493C31A8
:103F4000884209D13F49083949680F2212031143B9
:103F50003C4A083A51600CE03A495031884208D155
:103F60003849083949680F2212041143354A083A82
:103F70005160704710B500220268334B1A400C6A3A
:103F80008B6823430C6923434C6923438C69234387
:103F9000CC6923434C6A23438C6A23431A4302604F
:103FA000CB6843600B6883604B68C36010BD002121
:103FB000016041608160C160016141618161C161F5
:103FC0000162416281627047002904D002680123C6
:103FD0001A43026003E00268194B1A4002607047FE
:103FE000416070470146486880B27047002A03D09C
:103FF00003680B43036002E003688B430360704770
:10400000014600200F4A083A12680A40002A01D0EF
:10401000012000E0002070470A49083948607047D5
:1040200001460020074A083A12680A40002A01D0D7
:10403000012000E0002070470249083948607047BD
:10404000FEFF0000080002400F80FFFF3E483F498E
:104050000860002048608860C8603D48486170473B
:1040600000213A498279002A35D00A46126803684D
:104070009A430B461A600A46526803689A430B46F5
:104080005A60027951180A6803681A430A602F4A75
:10409000926803689A432D4B9A601A46D268036867
:1040A0009A432A4BDA604279102A0CD11A46926858
:1040B00003681A43254B9A601A46D26803681A436C
:1040C000224BDA600DE02149427951180A680368F1
:1040D0001A430A6005E0027951180A6803689A4396
:1040E0000A6070470021016001710C2141710021BB
:1040F00081717047154909690143144A116170477C
:1041000001460020114A52690A40002A01D00120CC
:1041100000E0002070470D494861704701460020CB
:1041200000220A4B1B680B401A46084B5B690B4088
:10413000002B03D0002A01D0012000E000207047AE
:1041400002494861704700000000940F00040140DC
:10415000FFFF6B000F49086070470E4948607047C9
:104160000C49886070470C480A4908607047094943
:1041700008617047094807490860704701460020F8
:10418000044AD2680A40002A01D0012000E0002041
:104190007047000000300040AAAA0000CCCC00000C
:1041A00000218278002A27D0274A03231B02D21835
:1041B00003789B109B00D15802789207D30EFF2200
:1041C0009A400B469343194642789207120E0378A1
:1041D0009B07DB0E9A4011431B4A03231B02D21894
:1041E00003789B109B00D1500278D306DB0E01228E
:1041F0009A40154B1A6007E00278D306DB0E0122C5
:104200009A40114B80331A607047002905D00F4A3D
:10421000126902430D4B1A6104E00C4A1269824391
:104220000A4B1A617047042806D10949096904221A
:104230001143074A116105E00549096904229143C8
:10424000034A11617047000000E100E000ED00E06A
:1042500000E000E010B50446E348844208D10121A3
:104260008014FFF756FA0021A014FFF752FA0AE073
:10427000DE48844207D101210014FFF758FA0021DB
:104280002014FFF754FA10BD00210180418007215E
:10429000090281800021C180018141818181C18128
:1042A00007210182704710B500220288C1239B01BB
:1042B0001A400B88CC892343CC8823430C892343A1
:1042C0004C8923438C8923431A4302808288C84B3C
:1042D0001A408B881A4382800B8A03820288C54B5E
:1042E0001A404B881A430280838BC34C234083833C
:1042F00010BD0021018041808180C1800221816048
:10430000002181817047F0B58DB005460C46002034
:104310000C9002270B9001200A90002600200290AA
:10432000A88BB349BF390840A88302202884A88BF2
:104330000C90A068022802D100200B9038E0A088E1
:10434000002802D101200A9001E002200A9003A86F
:10435000FFF7C5F803980290E088012149028842DE
:104360000AD1A168029A120A0A235A43104601F0A0
:10437000CFFE401D86B20CE00A984101029801F080
:10438000C7FE0A2148430190A16801F0C1FE401D0B
:1043900086B20A21304601F0BBFE0646F007C00F88
:1043A0000B900B98301AC003070C0B9800020B906F
:1043B000022F01DBFF2F02DD022700200B90E08897
:1043C0000B99084338432884A088A1890843618851
:1043D0000843218808430121C90208430C99084376
:1043E0000C900C98A8830DB0F0BD002904D0028871
:1043F00040231A43028004E002887E4B3C3B1A4073
:1044000002807047002904D0828810231A438280DA
:1044100004E08288774B0C3B1A4082807047002969
:1044200005D0828B01239B021A43828303E0828B97
:10443000724B1A40828370470A46002181886C4B78
:1044400019400B46134319468180704782886C4B94
:104450001A40828082880A43828070470122920338
:10446000914204D102880B461A43028003E002887D
:10447000644B1A40028070475E4AFC3A914205D074
:104480000288FF2301331A43028004E00288594B5B
:10449000FC3B1A4002807047002904D08288042324
:1044A0001A43828003E08288524B1A408280704710
:1044B000002904D0828808231A43828004E082887D
:1044C0004C4B1B1F1A4082807047002202460C3260
:1044D0001170704781817047014600220A460C32F4
:1044E000107870470146888970470288424B1A400D
:1044F000028002880A4302807047002905D00288A2
:1045000001235B031A43028003E002883E4B1A40FA
:104510000280704701880122120311430180704715
:1045200002460020012901D0108B00E0908A7047DC
:104530000146088A7047002A03D083880B43838092
:1045400002E083888B438380704782882F4B1A4018
:10455000828082880A438280704730B5002400231D
:104560000C110125A540ABB2002A03D085881D435C
:10457000858002E085889D43858030BD014608899D
:104580000322D202104070470146088903225202DA
:10459000104070470246002013890B40002B01D0C9
:1045A000012000E000207047CA4302817047F0B547
:1045B000024600200024002300250F073F0F01269C
:1045C000BE40B4B20B1101269E40B3B296881E4085
:1045D000354616892640002E03D0002D01D001203B
:1045E00000E00020F0BD0000003001400038004035
:1045F000FFF00000FBFF0000FFF70000FFFB0000E2
:10460000FFEF0000FFBF0000FFDF0000FF9F000082
:104610003A4800688007800F3849086000208860A9
:1046200000213648C160016141618069FF2101318B
:104630000843324988617047014600202F4A1068BC
:104640008008800002460A4310462C4A10607047DA
:10465000002905D0294A12680243284B1A6004E059
:10466000264A12688243254B1A607047002905D0FC
:10467000224A12680243214B1A6004E01F4A126862
:1046800082431E4B1A60704730B500228B071C0F07
:104690000F23A3401A46194B08338C10A4001B5952
:1046A0009343164C08348D10AD00635123468C1093
:1046B000A4001B598C07250F0446AC4023430F4C24
:1046C00008348D10AD00635130BD0C498969014338
:1046D0000A4A9161704701460020084A9269FF2307
:1046E00001331A40002A01D0012000E00020704769
:1046F000024989690143014A916170470000014004
:104700000448804704480047FEE7FEE7FEE7FEE76F
:10471000FEE7FEE79B470008C10000080CB500203B
:104720000190009011205F4908605F4840685E4931
:104730004860084640684860084640683F210904D0
:10474000884359494860084640680521C904084320
:104750005549486008460068012109060843524946
:10476000086000BF50480068012149060840002841
:10477000F8D04D484068800880004B4948600846A2
:104780004068022108434849486000BF46484068E5
:104790000C2108400828F9D10CBD10B5424800682A
:1047A0000121084340490860084640683F490840E5
:1047B0003D494860084600683D4908403A4908605C
:1047C0000846006801218904884337490860084683
:1047D00040683F2109048843334948600846C06A5D
:1047E00000090001C8620846006BFF21543188436C
:1047F0002D4908630846406B40084000486300208C
:104800008860FFF78BFF10BDF8B500250024002657
:104810000027254840680C2108400546002D04D09B
:10482000042D06D0082D2AD107E02248224908602D
:1048300029E020482049086025E01B4840680F21F6
:1048400089040840044618484068012109040840CA
:104850000646A00C841C002E04D11848604316495B
:1048600008600BE01048C06A0007000F471C39467B
:10487000104801F04DFC60430F49086003E00D480B
:104880000D49086000BF00BF07484068F02108409C
:1048900000090B490D5C08480068E84006490860BB
:1048A000F8BD000000200240001002400CB8FFF8E4
:1048B000FFFFF6FE00127A004C00002000093D00C8
:1048C000500000207CB5002516E06946284601F01E
:1048D0000DF90646002E0DD1A800F6490C58002C03
:1048E00008D0012C06D0E1688900A0684018E06378
:1048F00001982064681CC5B23F2DE6D97CBD002418
:1049000000BF02E0C82001F0F7F9EB48007800286A
:10491000F8D06421E948006801F0FAFBE749086033
:1049200008460068002804D1E5490870FF2001F01E
:104930001FF900BF01F0C0FA0446E2480068E249EE
:1049400008600020DF490860204601F0B9FADB4822
:104950000168DD48006801F0DBFB6421081AD849D2
:10496000087001F048FBFFF7ADFF642001F0C4F9C7
:10497000E0E700B587B0032000218022D34B0193EC
:10498000029203910490D2483E23D24A0090D2482A
:1049900000F0C2FE06AAD1A13E2001F022F807B025
:1049A00000BD002400BF00BF01F086FA0446C548E0
:1049B0000068401CC3490860204601F081FA01F0FC
:1049C00019FBF1E700B587B0032000218022C74B17
:1049D0000193029203910490BD48401C3F23C44AB6
:1049E0000090C44800F098FE06AAC3A13F2000F042
:1049F000F8FF07B000BD04E000220270401C4A1E10
:104A000091B20029F8D1704770B5C821BE48FFF7B0
:104A1000F2FF00240DE0601C85B214206043BA4907
:104A20004318142068434618002018705E60601C0C
:104A300084B2092CEFD314206043B34943180020FB
:104A4000187058600846B149086070BD70B5D12132
:104A5000C900AF48FFF7CFFFFF2101319548FFF7AD
:104A6000CAFF00240DE0601CC5B24C206043A84979
:104A700043184C20684346185E61A6A05864601C29
:104A8000C4B2152CEFD34C206043A1494318002039
:104A90005861A0A0586400209F4908609C489F4925
:104AA000086070BD00219E4A1170002004E00021C2
:104AB0009C4A1154411CC8B20828F8D300219A4AD4
:104AC00011709A4A11709A4A11609A4A116070479F
:104AD00000209949086099490870994908709949D6
:104AE00008709949087099490860764908607649C4
:104AF00008607249086070490870704710B501F08D
:104B000075FAFFF7E5FFFFF7CDFFFFF79FFFFFF710
:104B10007BFFFFF757FFFFF72CFF01F068FA10BD8E
:104B200089480078012808D184480078FF2804D2F9
:104B300082480078401C8149087070478449784A4F
:104B40001278885CC100774A125C814B9A5C8918A4
:104B5000764A1170704710B500247B480078012810
:104B600033D101F0A9F9044674480078002804D034
:104B700072480078401E714908707048007800281B
:104B800020D16F48007800281CD1FFF7D7FF674875
:104B900000788000474908586549086063480078F4
:104BA0006149097888420DD061480068006B401C5B
:104BB0005F490968086365480068401C63490860EC
:104BC00001F0D0F9204601F07BF910BD10B50024AA
:104BD0005D480078012812D101F06EF9044657486B
:104BE0000078002808D156480078FF2804D254489D
:104BF0000078401C52490870204601F061F910BD50
:104C000010B5002401F058F904464C4800780028FB
:104C100020D14B48007800281CD1FFF78FFF434874
:104C20000078800023490858414908603F480078CF
:104C30003D49097888420DD03D480068006B401C12
:104C40003B490968086341480068401C3F490860C7
:104C500001F054F9204601F033F910BD10B50024DD
:104C600039480078012824D101F026F90446344857
:104C7000007800281AD032480078401E3049087069
:104C80000846007800280DD12C480078002805D16E
:104C9000204601F015F9FFF7B3FF0AE0204601F0C6
:104CA0000FF906E0204601F00BF902E0204601F082
:104CB00007F910BD8C120020740000206C00002049
:104CC0006800002084000020700000208C0E00206E
:104CD000FEFF000088100020FF48000875432F4F9A
:104CE000532D494920537461740000008C1000203A
:104CF00088120020A349000875432F4F532D4949BE
:104D00002049646C65000000C40D00206400002090
:104D10008C1300203F000000940000208C00002035
:104D2000790000207A000020770000207800002021
:104D300090000020880000209C00002075000020CA
:104D40007600002083000020820000206000002008
:104D50002266000810B5F5480078002812D1FFF748
:104D6000EDFEF3480078F3490870F14800788000C0
:104D7000F1490858F149086008460068F0490860A0
:104D800001F0A1F810BD10B50024022000F0B4FF1E
:104D900001F092F804460020EA490860204601F03C
:104DA0008FF8642000F0A8FF01F086F80446E5487B
:104DB0000068E54908600120E4490870204601F0D8
:104DC0007FF810BD70B5002601F05BF901F074F8B2
:104DD0000646DF480068401CDD490860304601F0A7
:104DE0006FF8D248007801285CD1DA4800780028B2
:104DF00004D0012804D0022809D103E001250BE0EA
:104E0000002509E001250120D249087004E00125B0
:104E10000020D049087000BF00BF002D00D170BD38
:104E2000CD4804683AE001F047F80646606A002879
:104E300030D0606A401E6062606A00282AD1282053
:104E4000005D37210840002809D02820005DC821D6
:104E500008402821085501212920015502E00021A0
:104E6000292001552820005D08210840002811D183
:104E70002E20005DB94909780843B84908702C20F4
:104E8000005DB749085C2D21095D08432C21095DAF
:104E9000B34A50546469304601F012F82A20005D8C
:104EA0003F28C0D100BFBAE7FF20243070477047C9
:104EB00010B52C231A5C0B460B339B5C2D24245C11
:104EC000A3430C460B34A35423469B5C002B04D114
:104ED0008B7A2E24245CA3438B7210BDFFB582B065
:104EE00005460F46A87A9F490E5C28460B30805D28
:104EF000085C0190F10001980818C0B20090009879
:104F000080008D490C580020606227622820005DD7
:104F100004998843282108552921059808552820F7
:104F2000005D0821084000280DD12E20005D8B492E
:104F300009780843894908708948805D2D21095DF9
:104F400008438749885529462046FFF7B1FF009856
:104F500006B0F0BD10B57A4A1268D061784A12687E
:104F60002032137B02460B32D25C754B1B68203318
:104F70005B7B1A43724B1B6820331C7B03460B334D
:104F80001A55827A6E4B1B6820339B7B1A438272C0
:104F90006B4A12682032117B714A525C684B1B6865
:104FA00020335B7B9A436E4B5A541A46525C002A5C
:104FB00008D1634A12682032937B684A12789A4378
:104FC000664B1A7010BD014600228A72002005E06F
:104FD00000230A460B321354421CD0B20828F7D3E0
:104FE000704705E00B780370491C401C531E9AB2B1
:104FF000002AF7D170470146002002E0491C421CFC
:10500000D0B20A78002AF9D17047FFB581B00546C1
:105010000F460020009000F04FFF009052480468B7
:10502000002C7DD0504960690860009800F048FF6E
:1050300027602A20055500212820015529200155E7
:10504000002060620B9860600A98E0600398A0609E
:105050000C982082049860822F200155E9102C20A2
:1050600001556907490F2B2001552C20015D0120B6
:105070008840C1B22E2001552B20015D01208840BF
:10508000C1B22D2001550020E06120622063A063A1
:105090006063E063206435A06064002606E00021C0
:1050A000B200204648308150701CC6B2002EF6D0A7
:1050B000204600F0E5FF204600F09AFF00F0FCFEDD
:1050C0000090A8001C490C50234800686061002033
:1050D000A06121480068002802D01F480068846150
:1050E0001D4804602E20005D1C49097808431B49B7
:1050F00008702C20005D1A49085C2D21095D0843C9
:105100002C21095D164A505419480078401C184952
:105110000870009800F0D4FE002005B0F0BDFFE755
:10512000009800F0CDFE4220F7E70000820000204A
:1051300078000020770000208C12002090000020D2
:1051400088000020840000206C00002074000020F3
:105150009C0000209800002094000020790000208E
:105160007A000020226600088C0000203F0000002A
:105170008300002070B5044600262078032801D063
:10518000002070BD00F098FE06462589002D02D053
:105190002089401E2081304600F092FE2846F0E72C
:1051A00070B505460026D6480078002801D00020BA
:1051B00070BD00F081FE0646D248046800680028F1
:1051C00004D0D04800684068CE490860304600F0FE
:1051D00077FE002C07D0032020702581002060601E
:1051E0002046FFF7F0FE2046E2E7F7B582B004461E
:1051F0001546002001902078032804D00120287053
:10520000204605B0F0BDBE480078002803D00F202E
:1052100028702046F5E700F04FFE0190A07A0028A4
:1052200001D0012700E000270398002802D00128C0
:1052300036D118E0002F0FD100202070B14800684F
:10524000606000202081AF480460019800F038FEC3
:1052500000202870002605E0019800F031FE49206A
:105260002870264623E005E0002301221946204647
:10527000FFF734FEA07A0028F6D12070A14800681C
:105280006060002020819F480460019800F018FEB3
:10529000012F01D1FFF7B4FC00202870002606E0A2
:1052A000019800F00DFE07202870264600BF00BFC1
:1052B0003046A6E7F8B505460E461446002728787E
:1052C000032802D001202070F8BD8D480078002806
:1052D00002D002202070F7E78B480078002802D027
:1052E0000D202070F0E700F0E7FD07462889002830
:1052F00008D02889401E2881384600F0E1FD0020B2
:105300002070E1E7814800682030007A01210843DD
:105310007E4909682031087200217C4800682030ED
:1053200041727A48006846622846FFF713FE384605
:1053300000F0C6FDFFF764FC00F0BEFD07467348B1
:1053400000682030407A002804D0012809D00228C3
:1053500006D102E0002020700BE00E20207008E053
:1053600000BF294669480068FFF7A2FD0A202070A7
:1053700000BF00BF0021654800682030017263480B
:10538000006820304172002060490968C8613846D1
:1053900000F096FD00BF97E7F8B504460F461546A6
:1053A000002000902078032803D0012028700020DE
:1053B000F8BD00F081FD0090A07A002825D00026DD
:1053C000002F0FD0012F0CD107E002230122002172
:1053D0002046FFF783FD701CC6B2A07A0028F4D1E6
:1053E00009E000BF0223012200212046FFF776FDDD
:1053F000701CC6B200BF00BF009800F061FDFFF74F
:10540000FFFB0E2028703046D2E7009800F058FDD0
:105410000020287000BFCBE770B504460025207837
:10542000032801D0012070BD00F046FD0546A07A9A
:1054300000280CD00023012219462046FFF74EFD1C
:10544000284600F03DFDFFF7DBFB0020EBE720895D
:105450002F49884207D22089401C2081284600F02D
:105460002FFD0020DFE7284600F02AFD3320DAE791
:10547000FEB504460D46002000902078032801D098
:105480000120FEBD00F018FD0090A07AA87227460A
:105490000B37A81C0190002608E0397801980170AC
:1054A0007F1C0198401C0190701CC6B2082EF4D3DA
:1054B00020892880009800F003FD0020E1E7F8B57E
:1054C00004460E46154600272078032802D0012006
:1054D0002870F8BD00F0F0FC0746002028702089F5
:1054E000002801D0268106E0A07A002801D126817B
:1054F00001E049202870384600F0E2FC00BFE8E7F0
:105500007500002064000020760000208800002044
:10551000FFFF0000F3B587B00020019000F0CCFC45
:10552000019008988000F9490858002805D0019892
:1055300000F0C6FC282009B0F0BD0798FF2804D170
:10554000F34800682030807A079007988000EF4980
:105550000C58002C04D1019800F0B2FC2920EAE795
:10556000012C04D1019800F0ABFC4320E3E708983C
:10557000C71008984007400F06900120B840C0B2FD
:105580000590012106988140C8B204900021079837
:105590008000DE4A11500898800011460C502C20E3
:1055A000065D2E20005D03902D20005D0290D948FD
:1055B000815D0298014000291BD0D648805D029988
:1055C0008843D44988550846805D002805D1D248D3
:1055D000017803988143D0480170CF48007805993D
:1055E0000843CD490870CB48C05D04990843C949B8
:1055F000C855E569002D1BD028460B30805D029907
:10560000884329460B3188550846805D002803D120
:10561000A97A03988143A972A87A05990843A872C8
:1056200028460B30C05D0499084329460B31C85504
:105630002A21089808552C2007552B210698085533
:105640002E21059808552D2104980855019800F041
:1056500037FCB2480078012801D1FFF7D1FA0020C9
:1056600069E7FFB585B006460F461C46002003904B
:1056700000F022FC0390AA480078002805D0039887
:1056800000F01EFC3C2009B0F0BDA0009F49085866
:1056900000282DD10120A1009C4A5050039800F011
:1056A0000FFC002339463046079A00F0A6FC049010
:1056B0000020009001900346024602902046049983
:1056C000FFF7A3FC0546002D06D194480078012879
:1056D0000CD1FFF795FA09E000F0EEFB03900020F3
:1056E000A1008A4A5050039800F0EAFB2846CAE716
:1056F000039800F0E5FB2820C5E7D307DB0F002B5C
:1057000009D002231340002B05D002E0491E0023DC
:1057100008C00029FAD17047FFB585B01C460F9F1D
:10572000129D0020039000F0C7FB03907C48007896
:10573000002805D0039800F0C3FB3C2009B0F0BD61
:10574000A00072490858002831D10120A1006F4AF9
:105750005050039800F0B4FB2A4638461099FFF7E2
:10576000CCFF2B4605A807C800F047FC0490119910
:1057700010986A4623C23A4620460E9B0499FFF7CA
:1057800044FC0646002E06D16448007801280CD15E
:10579000FFF736FA09E000F08FFB03900020A1002C
:1057A0005A4A5050039800F08BFB3046C6E70398E6
:1057B00000F086FB2820C1E770B505460026584852
:1057C0000078002801D0402070BD3F2D01D13E203F
:1057D000FAE700F071FB0646FF2D03D14C48006844
:1057E0002030857AA80049490C58002C04D1304655
:1057F00000F066FB4320E7E7012C04D1304600F0BF
:105800005FFB3D20E0E72C20005D4249085C2D2134
:10581000095D88432C21095D3E4A50542C20005DCF
:105820001146085C002806D12E20015D3A48007818
:10583000884339490870E069002803D02046E169AF
:10584000FFF736FB00206062002128200155292047
:10585000015534480078FF2804D232480078401CB3
:1058600030490870304600F02BFBFFF720FB00F0BA
:1058700023FB06462B480078002804D029480078EE
:10588000401E28490870204600F0B3FB26480078E7
:10589000401E254908700020A9001C4A5050A069EC
:1058A000002805D16169886120496069086005E0C8
:1058B000A169606948616169A06988611C480068E4
:1058C00060611B4804601BA06064304600F0F8FA79
:1058D00012480078012801D1FFF792F9002073E700
:1058E000F8B5044600273F2C01D13E20F8BDFF2C1F
:1058F00022D100F0E1FA0746054800682030C67B57
:10590000384600F0DDFA3046F0E700008C12002047
:10591000880000207A00002079000020820000200A
:1059200075000020760000208300002094000020F5
:105930008C0000203F00000000F0BEFA0746A000E7
:10594000E7490D58002D04D1384600F0B9FA43203C
:10595000CCE7012D04D1384600F0B2FA3D20C5E76E
:105960003F212F204155384600F0AAFA0020BDE71C
:10597000FEB506460F46144600200090D948007830
:10598000002803D0112020700020FEBD00F094FA02
:105990000090FF2E03D1D44800682030867AB000F2
:1059A000CF490D58002D06D1009800F089FA432008
:1059B00020700020E9E7012D06D1009800F080FA60
:1059C000432020700020E0E7686C38603868FFF7FB
:1059D00012FB0190009800F073FA002020700198EB
:1059E000D3E7F8B506460F46144600200090BD48A0
:1059F0000078002802D012202070F8BD00F05CFA78
:105A00000090FF2E03D1B84800682030867AB0009D
:105A1000B3490D58002D05D1009800F051FA4320EC
:105A20002070EAE7012D05D1009800F049FA4320E3
:105A30002070E2E76F64009800F042FA00202070C6
:105A400000BFDAE770B50546002600F035FA0646D5
:105A5000A800A3490C58002C04D1304600F030FABD
:105A6000462070BD012C04D1304600F029FA4320B5
:105A7000F7E72820005D08210840002831D02820C1
:105A8000005DF7210840282108552820005D0028E6
:105A900022D1606A00281BD12E20005D934909782D
:105AA0000843924908702C20005D9149085C2D2123
:105AB000095D08432C21095D8D4A5054304600F0A1
:105AC000FFF98C480078012809D1FFF799F806E022
:105AD000304600F0F5F902E0304600F0F1F9002020
