:020000040800F2
:10000000B0190020F9370008D1010008D301000819
:1000100000000000000000000000000000000000E0
:10002000000000000000000000000000D7010008F0
:100030000000000000000000073800087D510008A3
:100040000B3800080B3800080B3800080B38000884
:100050000B3800080B3800080B3800080B38000874
:100060000B3800080B3800080B3800080B38000864
:100070000B3800080B3800080B3800080B38000854
:100080000B3800080B380008000000000B3800088F
:100090000B3800080B3800080B3800080B38000834
:1000A0000B3800080B3800080B3800080B38000824
:1000B0002F230008000000000B380008000000009B
:1000C0000348854605F02CF900480047D500000894
:1000D000B019002010B503F08DFD05F060F800F0B8
:1000E000EDFE00F06FFF012004F0D6F83149086002
:1000F0000223314A0021314804F02FFB0446052336
:100100002F4A00212F4804F028FB044600BF03F0CB
:100110009DFE002010BD00BF00BF0120C00200F006
:10012000B8FE7D23DB0000221146104604F096FE47
:100130000120C00200F0A5FE7D23DB000022114655
:10014000104604F08BFEE8E700BF00BF0120C002AC
:1001500000F09FFE7D20C00004F04AFE0120C00296
:1001600000F08FFE7D20C00004F042FEEEE701B5F6
:10017000002006E0002100E0491C134A9142FBDB0D
:10018000401C009A9042F5D308BD10B50F4803F00B
:10019000D5F8062003F0D5F81920C00103F0D4F8F3
:1001A00003F0D5F803F0DAF810BD10B503F0CFF87E
:1001B00010BD00000000002084060020D9010008C6
:1001C00084080020530A00088813000055550000D9
:1001D000704700BFFEE7704708B50024002601F015
:1001E00009F801F077FE01F01DFC01F093FF00F02B
:1001F0002EF900F04AF90421354805F056F804219B
:10020000334800F09CF93248C07800903048837839
:10021000427801782FA005F0B7F816213D4800F08C
:10022000C9F954E0FFF7C1FF601CC4B205212046A4
:1002300005F000F800291AD12546E00F40194010BA
:100240004000201AC1B20120000300F02AFE32480B
:1002500002683248017832A005F096F8701CC6B2E8
:100260002D480068401C2C49086000F006FC00BFC7
:100270002A480078012803D100202849087002E0AC
:1002800001202649087000F021FF334840780028FB
:1002900011D01E21204604F0CDFF00290BD12E489D
:1002A000C078002804D116211A4800F099FC02E019
:1002B000304600F054FC18480068782804D9002023
:1002C0002549487014490860C82004F091FDA9E749
:1002D0000C000020696E666F5F6265675F6279740B
:1002E000653D25642C696E666F5F6461745F736938
:1002F0007A653D25642C746F74616C5F6E756D3D1D
:1003000025642C6C6566745F6E756D3D25640D0A01
:1003100000000000880800200800002004000020E1
:100320006E6663203D202564207761697420666FC6
:10033000722069642063617264202C73696D3736A2
:1003400030305F636F6E6E745F6572725F636E7480
:10035000203D2025640D0A001F00002000B585B057
:100360000121880302F031FB002168460180FF2152
:10037000053141800721090281800221C1800121CC
:1003800001814902418100218181C18107210182CE
:100390006946B34803F07BF801210903B04803F034
:1003A00049F90121AE4803F014F905B000BD1CB5B0
:1003B00001210320400402F0ECFA0021684681711B
:1003C0000121C1710720400300900221684641715C
:1003D00001716946A34802F09DFB00220D21A1484E
:1003E00002F021FC00220E219E4802F01CFC00229B
:1003F0000F219C4802F017FC01200003009001210E
:10040000684601710221417100218171C171694603
:10041000944802F07FFBFF200130009001216846E4
:1004200001710221417100218171C1716946092068
:10043000C00602F06FFBFF2101310920C00602F067
:10044000E6FB01210903874802F0E1FB1CBD10B562
:10045000FFF7ADFFFFF782FF10BD10B5044600BFE8
:100460007F480089022108400028F9D021467C48B5
:1004700003F01FF900BF7A480089C007C00F0028A9
:10048000F9D0774803F01CF910BDF0B5FFB084B087
:10049000002082900026002701F0F4FC829072A0D8
:1004A000829904F071FF75A004F06EFF002402E051
:1004B00042A90C55641CFF2CFAD9002403E0204605
:1004C00001F00BFC641C002CF9D0002527E0290268
:1004D000FF22013242A801F0B3FB2902FF220132C0
:1004E00002A801F051FB002412E002A8005D42A91D
:1004F000095D88420BD07F1C42A8005D00940190EA
:1005000002A8035D2246294662A004F03DFF641C58
:10051000FF2CEAD9002F01D00027761C6D1C0F2D6F
:10052000D5D3002E05D00026314667A004F02CFF5D
:1005300002E06F4804F028FF7FB004B0F0BD30B592
:10054000C1B005460C46FF21013101A804F0ADFE03
:10055000FF21013101A804F0A8FEFF220132112180
:10056000090201A801F010FB224601A9284604F067
:1005700075FE41B030BD30B5C1B004460D46FF2117
:10058000013101A804F091FE012001F0A6FBFF213A
:10059000013101A804F089FE2A46214601A804F091
:1005A0005DFEFF2201321121090201A801F048FB82
:1005B00041B030BD30B5FFB082B004460D46FF21DA
:1005C000013141A804F071FEFF21013101A804F0BE
:1005D0006CFEFF21013141A804F067FEFF220132C9
:1005E0002121090241A801F0CFFA162241A9414870
:1005F00004F034FE3F48408A7D21C900884220D063
:100600003DA004F0C1FE122244A13A4804F026FEA7
:100610007D20C000374948828882022001F05DFBBE
:10062000FF21013101A804F040FE1622314901A842
:1006300004F014FEFF2201322121090201A801F079
:10064000FFFA16222B49204604F008FE2948838A27
:10065000428A014636A004F097FE7FB002B030BD5A
:1006600000380040000400487370695F666C617375
:10067000685F69643B25780D0A0000007370696645
:100680006C6173685F746573742073746172740D48
:100690000A000000706167655F696E6465783A25DD
:1006A000642C726561645F6275665B25645D3D25DF
:1006B000642C77726974655F6275665B25645D3D65
:1006C00025640D0A00000000737069666C61736830
:1006D0002074657374206572726F72212065727266
:1006E0006F7220636E74203D2564200D0A000000A7
:1006F000C0570008880800204E6577207665727321
:10070000696F6E20757064617465206465766963D5
:100710006520696E666F720D0A0000003230313953
:10072000303532373030303030303030310000004A
:1007300064657669636520636F64653A2573200D8F
:100740000A736F6674776172655F76657273696F3D
:100750006E3A25640D0A68617264776172655F762E
:10076000657273696F6E3A25640D0A00FFB5A1B01A
:1007700006461C46802101A804F097FD00270025AD
:10078000552168460171AA214171204608300004B4
:10079000010E6846817120460830C1B26846C171B9
:1007A0002299017246720121817200BF06E02398EE
:1007B000415DE81D01AA1154681CC5B2A542F6DBD3
:1007C0000027002505E001A8405DC019C7B2681CDC
:1007D000C5B2E01DA842F6DC01A90F54411C01A8D6
:1007E00001F00FFD25B0F0BD38B5044600200090A3
:1007F000009401236A4605210F20FFF7B7FF38BD9B
:1008000038B5044600200090009401236A46042174
:100810000F20FFF7ABFF38BD38B50446002000902D
:10082000009401236A4603210F20FFF79FFF38BD84
:1008300038B5044600200090009401236A4619460A
:100840000F20FFF793FF38BD70B5044600252079CF
:10085000030004F0A9FD070509D116DAE4F0FA0057
:10086000F7A004F091FDF1E0E079012808D1FAA0A9
:1008700004F08AFD012001F003F90020FFF7D8FF02
:10088000E4E0E079012871D1207A012804D002281F
:1008900040D003286BD17EE0F4A004F075FD002168
:1008A000012001F058FB002527E0C82004F0A0FA41
:1008B00010210920C00602F090F900281BD1022067
:1008C00000F017FB10210920C00602F086F900286D
:1008D00011D1022001F0D4F80020FFF79DFFFF2086
:1008E000F53004F085FA0121084601F034FBE7A059
:1008F00004F04AFD70BD681CC5B2282DD5DB03206D
:10090000FFF78AFF0121084601F025FBE6A004F06D
:100910003BFD6FE0EAA004F037FD0021022001F06A
:100920001AFB00252AE0C82004F062FA20210920E1
:10093000C00602F052F900281ED1022000F0D9FAB8
:1009400020210920C00602F048F9002814D1022015
:1009500001F096F80020FFF75FFFFF20F53004F06C
:1009600047FA0121022001F0F6FA01E043E040E0FD
:10097000DCA004F009FDBDE7681CC5B2282DD2DB60
:100980000320FFF749FF0121022001F0E4FADDA076
:1009900004F0FAFC2EE0E2A004F0F6FC00251EE0D4
:1009A0000021032001F0D7FAC82004F021FA102119
:1009B0000920C00602F011F901280ED10021032000
:1009C00001F0C9FA022001F05BF80020FFF724FFD4
:1009D0000121032001F0BFFA8CE7681CC5B2032D8A
:1009E000DEDB0320FFF718FF0121032001F0B3FA3B
:1009F00000E000BF00BF29E0E079002804D1D0A0CA
:100A000004F0C2FC00F0FEFF20E0E079012805D1EF
:100A1000D1A004F0B9FC0020FFF7F2FE16E0E07967
:100A2000012805D1D3A004F0AFFC0020FFF7DCFEC5
:100A30000CE00AE0FFE7E079002805D1D3A004F03C
:100A4000A3FC0120D849C87000E000BF00BF00BF70
:100A500050E708B5002000900EE06A460021D34818
:100A6000006803F0A3FCD2A004F08EFCD448FFF78A
:100A7000EBFEC82004F0BCF9EFE710B50221092015
:100A8000C00602F0AAF801281DD1C7498870CD48D8
:100A90000078401CCB490870084600780A281EDD03
:100AA000C1480078002804D101F0FFFBC6A004F083
:100AB0006BFCBD484078002811D1C8A004F064FC4C
:100AC00001F0F3FB0BE002210920C00602F085F8DB
:100AD000002804D1B4498870C4A004F055FC10BDAE
:100AE000F8B504460D4600260027C3A004F04CFCD0
:100AF00000BF05E0A15DC4A004F046FC701CC6B2B6
:100B0000AE42F7DB53A004F03FFC2078552825D1F6
:100B10006078AA2822D1A0780002E1784018A84283
:100B20001CD1002604E0A05DC019C7B2701CC6B27B
:100B3000681EB042F7DC205CB8420FD10020B349F8
:100B4000086040219E4804F0B0FB2A4621469C489C
:100B500004F084FB9548006803F0DAFCF8BD10B59A
:100B600086B004461821684604F09FFB684604706E
:100B70001222A749401C04F071FBA6488178684600
:100B8000C174A448C1786846017515236A460021DE
:100B90000F20FFF7EBFD06B010BD3EB504460D4635
:100BA0000020009001900290002C02D19AA004F045
:100BB000EBFB9E480078012802D16946087002E0EC
:100BC0000220694608702A46214600A8013004F038
:100BD00045FB6B1C6A4602210F20FFF7C7FD3EBD97
:100BE00070B504460D46002C02D191A004F0CCFB58
:100BF0002B46224606210F20FFF7B8FD70BD70B5C9
:100C0000A2B0802102A804F050FB002600248DA091
:100C1000006801900125552168460172AA214172A0
:100C20002846083001126846817229460831C1728F
:100C3000012101730F2141730121817300BF0AE17A
:100C400072656376204C4946455F5349474E414C97
:100C50005F434D440D0A000072656376205049439E
:100C60004B5F55505F434D440D0A0000726563763B
:100C700020554E4C4F434B494E475F424F4F4B5FC1
:100C80004C4F434B5F434D440D0A0000756E6C6F33
:100C9000636B20424F4F4B5F4C4F434B2073756348
:100CA000636573730D0A0000756E6C6F636B204291
:100CB0004F4F4B5F4C4F434B206572720D0A000043
:100CC0007265637620554E4C4F434B494E475F52F9
:100CD000455455524E5F4C4F434B5F434D440D0AB4
:100CE00000000000756E6C6F636B205245545552C6
:100CF0004E5F4C4F434B20737563636573730D0AEE
:100D000000000000756E6C6F636B205245545552A5
:100D10004E5F4C4F434B206572720D0A000000007D
:100D20007265637620554E4C4F434B494E475F41A9
:100D300044445F4C4F434B5F434D440D0A00000059
:100D40007265637620554D4252454C4C415F4D5380
:100D5000475F434D440D0A0072656376204749564C
:100D6000455F4241434B5F4F5645525F434D440DF3
:100D70000A00000072656376204144445F554D428D
:100D800052454C4C415F434D440D0A0072656376F9
:100D90002052454749535445525F494E464F5F43A1
:100DA0004D440D0A000000001F000020000000203C
:100DB000726563762073696D20646174610D0A0049
:100DC0009E08002010000020346720636F6E666963
:100DD00067206F7665720D0A000000003467207787
:100DE0006F726B206572720D0A0000003467206517
:100DF00072720D0A000000007265637620646174EF
:100E0000613A0D0A0000000025782000080000204B
:100E1000880800200C000020756D6272656C6C61A2
:100E20005F64617461206572720D0A000400002025
:100E300072656769737465725F646174612065725D
:100E4000720D0A000200000001A8015DE01D02AA67
:100E50001154601CC4B2AC42F6DB0026002405E04D
:100E600002A8005D8019C6B2601CC4B2E81DA04291
:100E7000F6DC02A90E54411C02A800F0B6F822B01C
:100E800070BD10B5044621460920C00601F0BFFE22
:100E900010BD10B5044621460920C00601F0B9FE78
:100EA00010BD70B505460C46002C03D02846FFF750
:100EB000F0FF02E02846FFF7E4FF70BD1CB50121FA
:100EC000480401F066FD3120C00100900121684610
:100ED0000171002181710221417169460920C0061A
:100EE00001F018FE3121C9010920C00601F091FE70
:100EF0001CBD002105E0002200E0521C082AFCDB9A
:100F0000491C8142F7DB7047002107E0002200E026
:100F1000521C7D239B019A42FADB491C8142F5DB7E
:100F200070470000014600BF704700BF3D4AD269CC
:100F300040231A40002AF9D0C2B23A4B20331A811A
:100F400070471CB50121480401F023FD012209214D
:100F5000C80601F068FE01220A210920C00601F03E
:100F600062FE0320400200900221684601710321C5
:100F70004171002181710121C17169460920C006BA
:100F800001F0C8FD1CBD00B587B00121880301F048
:100F90000EFDE12040020190002002900390049099
:100FA00006900C20059001A91E4801F085FE012243
:100FB0001D491C4802F09AF801211A4801F005FF6A
:100FC00007B000BD10B5FFF7BCFFFFF7DCFF10BD99
:100FD00000BF1449C969802211400029F9D0C10518
:100FE000C90D104A20321181704710B503460C46D6
:100FF00003E01878FFF7ECFF5B1C2046611E8CB203
:101000000028F6D110BD00B5034603E01878FFF7BD
:10101000DFFF5B1C18780028F8D10A20FFF7D8FF03
:1010200000BD000000380140050105003EB5054641
:10103000002442E0285DC117090F09180911620058
:101040006B46995460006946085C092806DD60001B
:10105000085C373061006A46505406E0600069461B
:10106000085C303061006A465054285DC117090F92
:10107000091809110901411ACAB26100491C6B46DD
:101080005A546000401C6946085C092809DD60006C
:10109000401C085C3730C1B26000401C6A461154E5
:1010A00009E06000401C6946085C3030C1B2600055
:1010B000401C6A461154601CC4B2042CBADB0020E8
:1010C000694608724FA004F05FF93EBD10B5504963
:1010D000522000F056FA4F49087008460078002860
:1010E00012D14DA004F050F9514800F075FA494969
:1010F00008704F48FFF79AFF04214D48FFF74DFD58
:10110000FF20F53003F074FE10BD10B50021012062
:10111000C002FFF7C6FE0A2000F0C5FB00F0CFFBBF
:1011200000F04BFC00F00DFC412000F018FC012108
:10113000C802FFF7B6FE0A2000F0B5FB002101202F
:10114000C002FFF7AEFE0A2000F0ADFB0121C8028D
:10115000FFF7A7FE0A2000F0A6FB00210120C00235
:10116000FFF79FFE10BD70471CB50121032040040E
:1011700001F00FFC1020009000216846017102214F
:10118000417169462B4801F0C5FC202000900121E7
:10119000684601710021817102214171694625482B
:1011A00001F0B8FC0820009001216846017100217F
:1011B00081710221417169461E4801F0ABFC01209A
:1011C000C003009001216846017102214171694606
:1011D0000920C00601F09EFC4020009001216846D5
:1011E000017100218171022141716946114801F0AC
:1011F00091FC1CBD10B5FFF7B7FFFFF7B4FFFFF779
:1012000084FF10BD49443E3E3E25730D0A00000098
:1012100019000020180000205265616420436172AB
:101220006420494420537563636573730D0A00009D
:101230001B00002000040048F8B507460D460821B1
:10124000FE4801F0E6FCFE480078012809D1C10300
:101250000920C00601F0DDFC4021F84801F0D7FC70
:1012600009E04021F54801F0D4FC0121C90309201F
:10127000C00601F0CCFC7E007E210E40082418E060
:1012800080203040002804D02021EC4801F0BFFC31
:1012900003E02021E94801F0BCFC0821E74801F007
:1012A000B6FC7006060E0821E44801F0B2FC601E90
:1012B000C4B2002CE4DC082418E080202840002878
:1012C00004D02021DD4801F0A2FC03E02021DB480E
:1012D00001F09FFC0821D94801F099FC6806050E31
:1012E0000821D64801F095FC601EC4B2002CE4DC55
:1012F000D3480078012809D1C1030920C00601F0B4
:1013000086FC4021CD4801F082FC09E04021CB4819
:1013100001F07DFC0121C9030920C00601F077FC22
:101320000821C64801F073FCF8BDF8B50746002651
:10133000C3480078012809D1C1030920C00601F083
:1013400068FC4021BD4801F062FC09E04021BB4837
:1013500001F05FFC0121C9030920C00601F057FC20
:1013600078007E21084005468035082418E00821D1
:10137000B24801F04EFC80202840002804D02021F3
:10138000AE4801F044FC03E02021AC4801F041FCF0
:101390000821AA4801F03BFC6806050E601EC4B295
:1013A000002CE4DC082412E00821A44801F031FC00
:1013B0007006060E0821A14801F029FC10219F4863
:1013C00001F00BFC012800D10643601EC4B2002CC2
:1013D000EADC9B480078012809D1C1030920C00636
:1013E00001F015FC4021954801F011FC09E0402175
:1013F000924801F00CFC0121C9030920C00601F04C
:1014000006FC08218D4801F002FC3046F8BD70B59D
:1014100005460C4600262846FFF787FF064630465D
:10142000204301462846FFF707FF70BD70B505460B
:101430000C4600262846FFF778FF06463046A043B4
:1014400001462846FFF7F8FE70BDFFB583B006469B
:10145000FE2002900020019000900C2E06D00E2E4F
:1014600009D1122001901020009005E07720019012
:101470003020009000E000BF00BF802201981043A0
:1014800001460220FFF7D8FE80210420FFF7CEFF9F
:1014900000210120FFF7D0FE80210A20FFF7B7FFCF
:1014A000002505E00498415D0920FFF7C5FE6D1C8D
:1014B00005988542F6D331460120FFF7BDFE0C2E7C
:1014C00003D180210D20FFF7A2FF7D252D0100BF54
:1014D0000420FFF72AFF04466D1E002D07D0E00709
:1014E000C00F002803D1009820400028F0D08021B0
:1014F0000D20FFF79BFF002D38D00620FFF715FFCA
:101500001B21084000282FD1029001982040C007DD
:10151000C00F002801D0FF2002900C2E26D10A20F7
:10152000FFF703FF04460C20FFF7FFFE47077F0F7E
:10153000002F05D0601EC000C1190C98016002E0A8
:10154000E1000C980160002C00D10124122C00DD78
:101550001224002505E00920FFF7E7FE069948550B
:101560006D1CA542F7D301E0FE20029080210C20E3
:10157000FFF74DFF00210120FFF75EFE029807B044
:10158000F0BD70B588B005460C4608210846FFF747
:101590004DFF07210D20FFF74FFE03211420FFF719
:1015A00036FF6846057207A802AB012202A9009027
:1015B0000C20FFF74AFF0646002E09D10798102895
:1015C00006D16846007A20706846407A607000E074
:1015D000FE26304608B070BDF0B587B0054600273E
:1015E00008210846FFF722FF00210D20FFF724FE07
:1015F00080210E20FFF71AFF9321684601712021F8
:10160000417106A801AB022201A900900C20FFF74E
:101610001CFF0646002E10D1002407E001A8005D43
:10162000285501A8005D4740601CC4B2042CF5DBBE
:1016300001A8005DB84200D0FE2603E00004004887
:101640000400002080210E20FFF7E1FE304607B0A5
:10165000F0BDF7B50746154604210520FFF7E6FE65
:1016600000210120FFF7E8FD80210A20FFF7CFFECF
:10167000002405E0395D0920FFF7DEFD601CC4B2DF
:1016800001988442F6DB03210120FFF7D5FDFF24FA
:1016900000BF0520FFF749FE0646601EC4B2002CBD
:1016A00003D0042030400028F3D02220FFF73DFE75
:1016B00028702120FFF739FE6870FEBD70B588B034
:1016C00005469321684601727021417200218173A1
:1016D00000240BE0295D02AAA01C11546946887BF6
:1016E000295D484069468873601CC4B2042CF1DB54
:1016F00003AA0332072102A8FFF7ABFF082108461F
:10170000FFF794FE07A802AB092202A900900C2063
:10171000FFF79BFE0646002E03D10798182800D13C
:1017200000E0FE26304608B070BDFFB587B0064623
:101730000F46684606714771002406E00998015D6E
:1017400001AAA01C1154601CC4B2062CF6DB0024B4
:1017500007E00A98015D01AA204608301154601C78
:10176000C4B2062CF5DB06A801AB0C2201A900903F
:101770000E20FFF76AFE0546002D06D10820FFF770
:10178000D4FD08210840002800D1FE2528460BB0D2
:10179000F0BDF0B587B005460E46302168460171B0
:1017A0004571821D022101A8FFF753FF06A801AB76
:1017B000042201A900900C20FFF747FE0746002FE6
:1017C0000CD10698902809D1002404E001A8005DFE
:1017D0003055601CC4B2102CF8DB00E0FE27384600
:1017E00007B0F0BDF0B587B006460F46A0216846A9
:1017F00001714671821D022101A8FFF72AFF06A888
:1018000001AB042201A900900C20FFF71EFE054643
:10181000002D08D10698042805D1684600790007F4
:10182000000F0A2800D0FE25002D22D1002404E05C
:10183000385D01A90855601CC4B2102CF8DB05AA5C
:10184000102101A8FFF705FF06A801AB122201A98C
:1018500000900C20FFF7F9FD0546002D08D10698F1
:10186000042805D1684600790007000F0A2800D037
:10187000FE25284607B0F0BD00B587B05021684668
:10188000017100214171821D022101A8FFF7E1FED3
:1018900006A801AB042201A900900C20FFF7D5FD9A
:1018A000002007B000BD002106E0002200E0521C2D
:1018B000534B9A42FBD3491C8142F6D3704710B573
:1018C0000220FFF732FD80281DD101210001FFF722
:1018D000E8FA0A20FFF7E7FF00210120C002FFF726
:1018E000E0FA0A20FFF7DFFF0121C802FFF7D9FA6B
:1018F0000A20FFF7D8FF00210120C002FFF7D1FA2C
:101900000A20FFF7D0FF0F210120FFF795FC3D21B2
:101910001120FFF791FC1E212D20FFF78DFC0021E7
:101920002C20FFF789FC8D212A20FFF785FC3E2122
:101930002B20FFF781FC40211520FFF77DFC0020C4
:1019400010BD10B51420FFF7F0FC0446A007800F6F
:10195000002803D103211420FFF759FD10BD10B555
:101960000446412C25D108210846FFF75FFD3D21A3
:101970001120FFF761FC86211720FFF75DFC7F2116
:101980002620FFF759FC1E212D20FFF755FC0021D2
:101990002C20FFF751FC8D212A20FFF74DFC3E2122
:1019A0002B20FFF749FC0120FFF77DFFFFF7C9FF60
:1019B00001E0FF2010BD0020FCE710B5032114203A
:1019C000FFF734FD10BD38B518E069465220FFF727
:1019D000D8FD0446002C0ED069465220FFF7D1FDF9
:1019E0000446002C07D069465220FFF7CAFD044682
:1019F000002C00D038BD6420FFF755FFE5E700005C
:101A000060EA000010B540210920C00601F0FFF88F
:101A1000FF20F53003F0ECF940210920C00601F069
:101A2000F8F810BD1CB50121880400F0B2FF0220B7
:101A300000900121684601710021817102214171EC
:101A400069462F4801F066F8402000900121684661
:101A50000171002181710221417169460920C0068E
:101A600001F058F80221264801F0D3F80221244859
:101A700001F0CDF840210920C00601F0CAF81CBDD4
:101A800070B504460026002502211D4801F0BFF86C
:101A900002211B4801F0BDF80520FFF735FA254665
:101AA00000BF25E0E807C00F00280FD0022114482E
:101AB00001F0ADF84B20C000FFF71BFA02211048DF
:101AC00001F0A7F8C820FFF714FA0EE002210C4835
:101AD00001F09DF8C820FFF70CFA0221084801F038
:101AE00098F84B20C000FFF704FA6D10701CC6B2C6
:101AF000082ED7DB0221024801F089F870BD0000F2
:101B00000004004810B501210903EF4801F081F8F5
:101B10000620FEF7A2FC01210903EB4801F077F84B
:101B200010BD10B501210903E74801F072F8042047
:101B3000FEF793FC01210903E34801F068F810BDAA
:101B400010B501210903E04801F063F80520FEF714
:101B500084FCFF20FEF781FC044601210903DA48DA
:101B600001F055F8204610BD10B50446FFF7CAFF36
:101B70000120FEF772FC2046FEF76FFC01210903ED
:101B8000D14801F044F810BD70B505460C46164624
:101B900001210903CC4801F03CF80320FEF75DFC6D
:101BA0002102080EFEF759FC2104080EFEF755FC31
:101BB000E0B2FEF752FC04E0FF20FEF74EFC287076
:101BC0006D1C3046711E8EB20028F5D1012109032B
:101BD000BD4801F01CF870BD70B505460C461646B0
:101BE00001210903B84801F014F80B20FEF735FC79
:101BF0002102080EFEF731FC2104080EFEF72DFC31
:101C0000E0B2FEF72AFCFF20FEF727FC04E0FF20ED
:101C1000FEF723FC28706D1C3046711E8EB2002822
:101C2000F5D101210903A84800F0F1FF70BD10B5FE
:101C300000BFFFF785FFC007C00F0028F9D110BD16
:101C400070B505460C461646FFF75CFF01210903F7
:101C50009D4800F0DEFF0220FEF7FFFB2102080E88
:101C6000FEF7FBFB2104080EFEF7F7FBE0B2FEF7E0
:101C7000F4FB03E02878FEF7F0FB6D1C3046711E84
:101C80008EB20028F6D1012109038F4800F0BFFF72
:101C9000FFF7CDFF70BDF8B507460E461446F0B20B
:101CA000FF2101310D1AAC4200DC254612E02A4624
:101CB00031463846FFF7C4FFAC4200D10BE07F1934
:101CC0007619601B84B2FF200130844201DD054695
:101CD00000E02546EBE700BFF8BD10B5044624033D
:101CE000FFF710FFFFF7A3FF01210903764800F07B
:101CF00090FF2020FEF7B1FB2102080EFEF7ADFB9E
:101D00002104080EFEF7A9FBE0B2FEF7A6FB0121B5
:101D100009036D4800F07BFFFFF789FF10BDF7B5A1
:101D20006A4B9D440F461646390B01913905090D42
:101D300000910121090300980C1AA64200DC3446E8
:101D40004DE0019801030122120302A8FFF71CFFD6
:101D5000002508E00098401902A9085CFF2800D07F
:101D600003E0681C85B2A542F4DB00BFA54217DA88
:101D70000198FFF7B2FF002509E0554868448068E4
:101D8000425D0099481902A90A54681C85B2A5420F
:101D9000F3DB019801034E4A02A8FFF77CFF06E03F
:101DA000224639464A4868448068FFF774FFA642D5
:101DB00002D1FFF7B6FE13E00198411C019100210A
:101DC0000091434868448168091981603F19301BBC
:101DD00086B23F48864201DD044600E03446B0E763
:101DE00000BF3B4B14339D44F0BD10B504462404A2
:101DF000FFF788FEFFF71BFF3549334800F009FF66
:101E0000D820FEF72AFB2102080EFEF726FB21044C
:101E1000080EFEF722FBE0B2FEF71FFB2C492A4812
:101E200000F0F5FEFFF703FF10BD10B5FFF76AFEE7
:101E3000FFF7FDFE2649244800F0EBFEC720FEF721
:101E40000CFB2349204800F0E2FEFFF7F0FE10BD36
:101E500010B51F491C4800F0DCFEB920FEF7FDFA62
:101E60001B49194800F0D3FE10BD10B5184916489B
:101E700000F0CFFEAB20FEF7F0FA1549124800F053
:101E8000C6FE10BD10B5002411490F4800F0C1FE78
:101E90009020FEF7E2FA0020FEF7DFFA0020FEF7BE
:101EA000DCFA0020FEF7D9FAFF20FEF7D6FA00028E
:101EB0000443FF20FEF7D1FA04430549024800F02D
:101EC000A6FE204610BD000000040048F8EFFFFF0A
:101ED000001000001CB501210320400400F059FD52
:101EE0000720C00100900121684601710021817125
:101EF000022141716946324800F00CFE0120009039
:101F000000216846017181710221417169462C48A6
:101F100000F000FE302000900021684601718171C0
:101F20000221417169460920C00600F0F3FD1CBD85
:101F300010B58021224800F06AFE00210120C00275
:101F4000FEF7AFFF7D200001FEF7DEFF80211C4879
:101F500000F05FFE10BD70B505460C46012D04D0A3
:101F6000022D0ED0032D28D119E0002C04D18021A0
:101F7000134800F04CFE03E08021114800F049FEB8
:101F80001CE0002C05D1FF2101310D4800F03FFE7F
:101F900004E0FF2101310A4800F03BFE0EE0002C76
:101FA00005D101214902064800F031FE04E001217B
:101FB0004902034800F02DFE00E000BF00BF70BDE5
:101FC000000400480020EF49087048708870C8700D
:101FD000704710B594B004460121084600F0D9FCC2
:101FE0000121480400F0F1FC0121480400F0D1FC7B
:101FF000012202210920C00600F015FE0122032162
:102000000920C00600F00FFE0C200C90022108A849
:10201000017503214175002181750121C1750CA94C
:102020000920C00600F076FD0E9400200F9010905D
:10203000119013900C2012900EA9D34800F03CFE92
:102040001C2168460170022141700121817001F05C
:102050009BF90122CD49CC4801F048F801224021EA
:10206000C94801F030F81021C74801F07DF801217E
:10207000C54800F0AAFEC64801F0A8F8C2482430BE
:102080000190C4480290002003904020049000205A
:10209000059080200690002007900890099003206A
:1020A00000030A9000200B9001A9B94801F0DAF86A
:1020B0000120400401F028F901220821B44801F070
:1020C0000DF90121B24801F0F7F814B010BD1CB5AC
:1020D0000121480400F05DFC0220009000216846C8
:1020E00001710321417169460920C00600F012FD0B
:1020F0000120009001216846017102214171694669
:102100000920C00600F006FD01210920C00600F0EC
:1021100080FD1CBD10B5FFF7DAFFE1204002FFF79C
:1021200058FFFFF74FFF10BD00B58BB001210846E7
:1021300000F02FFC9648143801F048F892482830F7
:1021400000909548019010200290402003900020BC
:1021500004908020059000200690079008900320AE
:102160000003099000200A9069468948143801F05C
:1021700079F801228021844800F0A5FF00218448DD
:10218000143801F099F8824801F020F87E48243094
:102190000090804801900020029040200390002091
:1021A000049080200590002006900790089003205E
:1021B0000003099000200A906946754801F052F822
:1021C0000121734801F078F80BB000BD00BF6E49E3
:1021D000C969802211400029F9D0C105C90D6A4A98
:1021E00020321181704710B503460C4603E0187881
:1021F000FFF7ECFF5B1C2046611E8CB20028F6D175
:1022000010BD70B504460D46A9B22046FFF7EBFF9E
:10221000214662A003F0B8F870BD10B5052162A098
:10222000FFF7EFFF10BD10B5092161A0FFF7E9FF2F
:1022300010BD10B51C2161A0FFF7E3FF10BD10B564
:102240000F2165A0FFF7DDFF10BD10B50E2166A0C0
:10225000FFF7D7FF10BD10B50D2167A0FFF7D1FF25
:1022600010BD10B5102168A0FFF7CBFF10BD10B551
:10227000312169A0FFF7C5FF10BD10B50E2173A075
:10228000FFF7BFFF10BD10B50D2174A0FFF7B9FF18
:1022900010BD10B5062175A0FFF7B3FF10BD10B536
:1022A000062174A0FFF7ADFF10BD10B573A003F0B9
:1022B0006BF8FFF7CAFF7D20C00002F099FDFFF721
:1022C000B8FF7D20C00002F093FDFFF7B8FF7D202E
:1022D000C00002F08DFDFFF7BEFF7D20C00002F0C0
:1022E00087FDFFF7C4FF7D20C00002F081FDFFF7EE
:1022F000D6FF7D20C00002F07BFDE1204002FFF709
:1023000068FE7D20C00002F073FD01201D490870A9
:1023100048700020C87010BD08B51C2168460170C7
:10232000022141700121817001F02EF808BD70B5C5
:1023300000251649144800F019FF002820D0002479
:1023400000261021104800F00FFF0021104800F077
:10235000B3FF0F4800F0BEFF4021081A84B22146A7
:102360000C48FEF7BDFB40210A4802F09EFF4021C9
:10237000074800F0ADFF0121054800F09DFF00BFB8
:1023800070BD00001F000020004400400401040054
:10239000580002401E090020DE08002053656E64CC
:1023A000436D643A2573000041540D0A000000009B
:1023B00041542B4353510D0A0000000041542B435C
:1023C0004744434F4E543D312C224950222C224346
:1023D0004D4E4554220D0A0041542B4349504D4F58
:1023E00044453D310D0A000041542B4E4554434CA9
:1023F0004F53450D0A00000041542B4E45544F5099
:10240000454E0D0A0000000041542B4349505258DC
:102410004745543D310D0A0041542B4349504F501C
:10242000454E3D302C22544350222C226D32346EC6
:102430003939303036352E716963702E76697022E5
:102440002C34303033350D0A0000000041542B434A
:1024500049504F50454E3F0D0A00000041542B4358
:102460004950534855540D0A000000004154450D91
:102470000A00000041544F0D0A000000737461729D
:10248000742073696D3736303063655F636F6E66D5
:1024900069672E2E2E0D0A00FD48006801210843B1
:1024A000FB49086008464068FA490840F849486016
:1024B00008460068F8490840F54908600846006881
:1024C000012189048843F2490860084640683F2199
:1024D00009048843EE4948600846C06A00090001C3
:1024E000C8620846006BFF2154318843E8490863FD
:1024F0000846406B400840004863002088607047F1
:102500000021E34A917011468870704710B5024669
:102510000021002300205111002902D1DC4C236846
:102520000BE0012902D1DA4C236A06E0022902D12C
:10253000D74C636A01E0D64C636BD106C90E012407
:102540008C401C40002C01D0012000E0002010BD78
:1025500038B5002000900024002500BF1120FFF7AF
:10256000D5FF05460098401C0090052109020098FF
:10257000884201D0002DF1D01120FFF7C7FF0028BD
:1025800001D0012400E00024204638BD014600208F
:10259000BF4A1068F82302469A431046CA00104307
:1025A000BB4A10607047002806D0B949096801226B
:1025B0001143B74A116005E0B54909684908490067
:1025C000B34A1160704701460020B14A506BF823AE
:1025D00002469A431046CA001043AD4A5063704702
:1025E000002806D0AA49496B01221143A84A516329
:1025F00005E0A749496B49084900A54A516370475E
:10260000002806D0A249496B04229143A04A516395
:1026100005E09F49496B042211439D4A516370476D
:102620009B49096A49084900994A11621146096A99
:1026300004229143964A11621146096A01431162CC
:1026400070479349096A18229143914A11621146D1
:10265000096A014311627047002806D08C49496A13
:10266000012211438A4A516205E08949496A4908B1
:102670004900874A51627047854A52683D231B04CE
:102680009A43834B5A601A46526803460B431A43D7
:102690007F4B5A607047002807D07D4909680122A6
:1026A000120611437A4A116006E07949096801224D
:1026B00012069143764A1160704701460020744A21
:1026C000D06A0009000102460A431046704AD062EF
:1026D0007047002807D06E4909680122D2041143CF
:1026E0006B4A116006E06A4909680122D2049143ED
:1026F000674A116070476649C871704701460020FB
:10270000634A50688008800002460A431046604AC7
:10271000506070475E4840680C2108407047014691
:1027200000205B4A5068F02302469A431046024656
:102730000A431046564A5060704701460020544AEA
:10274000506807231B0202469A43104602460A437A
:1027500010464F4A506070474D4949680122920324
:1027600091434B4A51601146496882B21143484A2D
:1027700051601146096B92159143454A1163114608
:10278000096B020C1143424A116370474049096BBF
:10279000402291433E4A11631146096B0143116384
:1027A00070473B49096B10229143394A1163114626
:1027B000096B0143116370473549096B890889002A
:1027C000334A11631146096B014311637047FEB52B
:1027D00004460025002600200190009000272C4888
:1027E00040680C2108400546002D04D0042D05D07A
:1027F000082D28D105E02948206027E027482060DF
:1028000024E0234840680F218904084006462048F8
:1028100040680121090408400190B00C861C019811
:10282000002803D11E48704320600BE01848C06A9E
:102830000007000F401C00901848009902F0E4FCCB
:102840007043206002E01548206000BF00BF1048C0
:102850004068F021084005462D091248475D206870
:10286000F84060600A4840680721090208400546B0
:102870002D0A0C48475D6068F840A0600448006B72
:10288000FF2101310840884210D00748E0601BE07A
:10289000001002400CB8FFF8FFFFF6FE00127A00AD
:1028A00000093D0024000020809FD5007548406845
:1028B000012189030840884203D0A0684008E060F5
:1028C00002E0A0688008E0606E48006B402108408C
:1028D000402802D06C48206102E00120C003206142
:1028E0006848006B10210840102802D067486061DA
:1028F00001E0206860616348006B8007800F00285A
:1029000002D1A068A06119E05E48006B8007800FCB
:10291000012802D12068A06110E05A48006B8007AE
:10292000800F022802D18003A06107E05548006BA8
:102930008007800F032801D15448A061FEBD514992
:10294000096A01434F4A11627047002807D04D4978
:10295000096A0122D20311434A4A116206E0494939
:10296000096A0122D2039143464A11627047002846
:1029700007D04449096A012212041143414A1162F5
:1029800006E04049096A0122120491433D4A11625E
:102990007047002905D03B4A52690243394B5A61BE
:1029A00004E0384A52698243364B5A617047002925
:1029B00005D0344A92690243324B9A6104E0314AAD
:1029C000926982432F4B9A617047002905D02D4AA6
:1029D000D26902432B4BDA6104E02A4AD26982436E
:1029E000284BDA617047002905D0264A926A0243D3
:1029F000244B9A6204E0234A926A8243214B9A62F2
:102A00007047002905D01F4AD26802431D4BDA6087
:102A100004E01C4AD26882431A4BDA6070470029EE
:102A200005D0184A12690243164B1A6104E0154A90
:102A300012698243134B1A617047002905D0114A6D
:102A4000527A02430F4B5A7204E00E4A527A824382
:102A50000C4B5A7270470B48406A01210906084323
:102A600008494862704701460020064A92680A40B9
:102A7000002A01D0012000E000207047014988723F
:102A800070470000001002401280000000127A001F
:102A900010B504460920C006844209D1012148042A
:102AA000FFF7A1FF002101204004FFF79CFF30E069
:102AB0006E48844208D101210002FFF794FF0021F3
:102AC0002002FFF790FF24E06948844208D10121E9
:102AD0000002FFF788FF00212002FFF784FF18E0C3
:102AE0006448844209D101210805FFF77CFF0021D9
:102AF00001200005FFF777FF0BE05F48844208D113
:102B000001218805FFF76FFF002101208005FFF7F5
:102B10006AFF10BDF0B50A4600210023002400BF63
:102B20003DE001258D402B4615681D402C469C42FA
:102B300034D11579012D02D01579022D16D1856871
:102B40004F000326BE40B543856055794E00B54021
:102B5000866835438560858801268E40B54385802B
:102B6000858896798E40B6B23543858005684F00DA
:102B70000326BE40B543056015794E00B540066892
:102B800035430560C5684F000326BE40B543C560A8
:102B9000D5794E00B540C6683543C560491C10293B
:102BA000BFD3F0BD3549016000210171022141719F
:102BB00000218171C171704708B501221204009291
:102BC000009A0A430092009AC261C161009AC261F0
:102BD000C2690092C269009208BD02460020138AB1
:102BE0000B40002B01D0012000E00020704701467F
:102BF000088A704702460020938A0B40002B01D0C0
:102C0000012000E0002070470146888A70478161FA
:102C1000704701857047002A01D0816100E001857D
:102C2000704781827047F0B5002300244D07EE0EF7
:102C30001546B5402B46CD10AE0005462035AD59A2
:102C40004E07F70E0F26BE40B543CE10B60007461E
:102C50002037BD51CD10AE003D46AD591D432C4629
:102C6000CD10AD003E467451F0BD00000004004898
:102C700000080048000C004800140048FFFF000056
:102C800010B50446F648844209D101218803FFF7B4
:102C9000B8FE002101208003FFF7B3FE0BE0F148EE
:102CA000844208D101214804FFF7B9FE0021012028
:102CB0004004FFF7B4FE10BDF0B589B004460D46E0
:102CC000002700200890002620684008400020606F
:102CD000666803210903304688430646A868064310
:102CE00066602668E0480640E96868680843296924
:102CF000084306432660A66803210902304688433C
:102D0000064668690643A66001A8FFF760FDD4483F
:102D1000844202D10798089001E003980890206847
:102D20000121C903084000280CD02968089A5000E6
:102D300002F06AFA07462968089A500002F064FA1D
:102D40000E4609E02968089802F05EFA07462968ED
:102D5000089802F059FA0E4628684008B04200D898
:102D60007F1C20680121C9030840002806D03807CD
:102D7000460F3846BD49084030430746A78109B091
:102D8000F0BD4B21C9010160002141608160C1603B
:102D90000C21016100214161704710B50022426899
:102DA0000F2424021346A3431A464C680B6823439E
:102DB0008C682343CC6823431A43426010BD002132
:102DC000016041608160C1607047002904D00268E1
:102DD00001231A43026003E00268520852000260B5
:102DE0007047002A03D003680B43036002E00368C6
:102DF0008B4303607047002905D002680123DB0381
:102E00001A43026004E002680123DB039A43026074
:102E10007047002905D082680123DB021A438260D3
:102E200004E082680123DB029A4382607047002934
:102E300005D042680123DB041A43426004E0426883
:102E40000123DB049A4342607047002905D04268A1
:102E500001239B041A43426004E0426801239B045F
:102E60009A4342607047002A03D043680B43436093
:102E700002E043688B4343607047002905D04268F5
:102E80000123DB031A43426004E042680123DB03B1
:102E90009A4342607047002905D042680123DB0550
:102EA0001A43426004E042680123DB059A43426012
:102EB00070474269120E1206426142690A4342613A
:102EC0007047028AFF231B021A400282028A0A43C9
:102ED00002827047002904D0026802231A4302606C
:102EE00003E0026802239A4302607047826803236A
:102EF0001B059A43826082680A43826070470029FA
:102F000005D0426801231B051A43426004E0426871
:102F100001231B059A4342607047426803235B0507
:102F20009A43426042680A4342607047CA05D20D24
:102F3000028570470146888CC005C00D7047426805
:102F40001202120A426042680B061A43426070473E
:102F5000002905D0026801235B031A43026004E0E4
:102F6000026801235B039A430260704702680123F1
:102F7000DB029A43026002680A43026070474268BB
:102F800010239A43426042680A4342607047426895
:102F900020239A43426042680A43426070470029F6
:102FA00005D0426801239B031A43426004E0426853
:102FB00001239B039A4342607047002904D0826832
:102FC00008231A43826003E0826808239A438260E0
:102FD0007047028AD2B20282028A0B021A4302822C
:102FE0007047002904D0826820231A43826003E0DE
:102FF000826820239A4382607047002904D0826847
:1030000010231A43826003E0826810239A4382608F
:103010007047826807235B049A43826082684B048E
:103020001A438260704742691202120A4261426981
:103030000B061A4342617047826804239A438260F8
:1030400082680A4382607047002904D082680223A4
:103050001A43826003E0826802239A4382607047C9
:103060000038014000440040F3E9FFFFF0FF00009A
:10307000002905D0826801239B031A43826004E083
:10308000826801239B039A43826070478268012310
:10309000DB039A43826082680A4382607047026859
:1030A0001F235B059A43026002684B051A430260C6
:1030B000704702681F231B049A43026002680B04D6
:1030C0001A4302607047002A03D083680B43836071
:1030D00002E083688B4383607047826801235B034F
:1030E0009A43826082680A4382607047F8B503465B
:1030F0000024002600960025002018460E04340EF9
:10310000CEB200960127009EB7403D46022C01D169
:10311000001D02E0032C00D10830002A03D006680D
:103120002E43066002E00668AE430660F8BD002A42
:1031300003D0038B0B43038302E0038B8B43038396
:103140007047826801231B039A43826082680A43A6
:103150008260704702460020D3690B40002B01D0EB
:10316000012000E0002070470162704770B5024600
:103170000B4600240021002500201E04350ED9B284
:1031800001268E403146012D02D11668314006E0FD
:10319000022D02D15668314001E0966831401C0C86
:1031A0000126A6403446D6693440002903D0002CBD
:1031B00001D0012000E0002070BD10B500230022E6
:1031C0000B0C01249C402246026210BD0168584A43
:1031D000114001600021016041608160C16055497A
:1031E000884208D15349083949680F221143514A8E
:1031F000083A516035E04F491431884208D14D49B1
:1032000008394968F02211434A4A083A516028E0D7
:1032100048492831884209D14649083949680F226E
:1032200012021143434A083A51601AE041493C31C5
:10323000884209D13F49083949680F2212031143D6
:103240003C4A083A51600CE03A495031884208D172
:103250003849083949680F2212041143354A083A9F
:103260005160704710B500220268334B1A400C6A57
:103270008B6823430C6923434C6923438C692343A4
:10328000CC6923434C6A23438C6A23431A4302606C
:10329000CB6843600B6883604B68C36010BD00213E
:1032A000016041608160C160016141618161C16112
:1032B0000162416281627047002904D002680123E3
:1032C0001A43026003E00268194B1A40026070471B
:1032D000416070470146486880B27047002A03D0B9
:1032E00003680B43036002E003688B43036070478D
:1032F000014600200F4A083A12680A40002A01D00D
:10330000012000E0002070470A49083948607047F2
:1033100001460020074A083A12680A40002A01D0F4
:10332000012000E0002070470249083948607047DA
:10333000FEFF0000080002400F80FFFF0F490860F9
:1033400070470E49486070470C49886070470C48C8
:103350000A490860704709490861704709480749E8
:103360000860704701460020044AD2680A40002ADB
:1033700001D0012000E00020704700000030004034
:10338000AAAA0000CCCC000000218278002A27D015
:10339000274A03231B02D21803789B109B00D158A5
:1033A00002789207D30EFF229A400B4693431946A8
:1033B00042789207120E03789B07DB0E9A40114366
:1033C0001B4A03231B02D21803789B109B00D15089
:1033D0000278D306DB0E01229A40154B1A6007E0F3
:1033E0000278D306DB0E01229A40114B80331A601B
:1033F0007047002905D00F4A126902430D4B1A612C
:1034000004E00C4A126982430A4B1A61704704288F
:1034100006D10949096904221143074A116105E0EF
:103420000549096904229143034A1161704700006C
:1034300000E100E000ED00E000E000E010B504462F
:10344000E348844208D101218014FFF7DAFA002111
:10345000A014FFF7D6FA0AE0DE48844207D1012122
:103460000014FFF7DCFA00212014FFF7D8FA10BD92
:103470000021018041800721090281800021C18053
:10348000018141818181C18107210182704710B58D
:1034900000220288C1239B011A400B88CC89234358
:1034A000CC8823430C8923434C8923438C892343B1
:1034B0001A4302808288C84B1A408B881A43828044
:1034C0000B8A03820288C54B1A404B881A4302803C
:1034D000838BC34C2340838310BD00210180418036
:1034E0008180C18002218160002181817047F0B517
:1034F0008DB005460C4600200C9002270B90012051
:103500000A90002600200290A88BB349BF390840DA
:10351000A88302202884A88B0C90A068022802D1DE
:1035200000200B9038E0A088002802D101200A90EA
:1035300001E002200A9003A8FFF749F903980290DE
:10354000E0880121490288420AD1A168029A120A40
:103550000A235A43104601F057FE401D86B20CE084
:103560000A984101029801F04FFE0A214843019058
:10357000A16801F049FE401D86B20A21304601F0E3
:1035800043FE0646F007C00F0B900B98301AC0039D
:10359000070C0B9800020B90022F01DBFF2F02DDBE
:1035A000022700200B90E0880B99084338432884B9
:1035B000A088A18908436188084321880843012124
:1035C000C90208430C9908430C900C98A8830DB0CD
:1035D000F0BD002904D0028840231A43028004E091
:1035E00002887E4B3C3B1A4002807047002904D081
:1035F000828810231A43828004E08288774B0C3B38
:103600001A4082807047002905D0828B01239B02DB
:103610001A43828303E0828B724B1A408283704785
:103620000A46002181886C4B19400B46134319460A
:103630008180704782886C4B1A40828082880A435E
:103640008280704701229203914204D102880B4686
:103650001A43028003E00288644B1A4002807047DC
:103660005E4AFC3A914205D00288FF2301331A4397
:10367000028004E00288594BFC3B1A4002807047EC
:10368000002904D0828804231A43828003E08288C0
:10369000524B1A4082807047002904D08288082348
:1036A0001A43828004E082884C4B1B1F1A408280A0
:1036B0007047002202460C321170704781817047BA
:1036C000014600220A460C3210787047014688896C
:1036D00070470288424B1A40028002880A430280E7
:1036E0007047002905D0028801235B031A4302803A
:1036F00003E002883E4B1A40028070470188012295
:10370000120311430180704702460020012901D0B5
:10371000108B00E0908A70470146088A7047002AA3
:1037200003D083880B43838002E083888B438380AC
:10373000704782882F4B1A40828082880A43828099
:10374000704730B5002400230C110125A540ABB211
:10375000002A03D085881D43858002E085889D432B
:10376000858030BD014608890322D202104070478F
:103770000146088903225202104070470246002089
:1037800013890B40002B01D0012000E0002070477E
:10379000CA4302817047F0B502460020002400238E
:1037A00000250F073F0F0126BE40B4B20B110126C2
:1037B0009E40B3B296881E40354616892640002E9C
:1037C00003D0002D01D0012000E00020F0BD00005A
:1037D0000030014000380040FFF00000FBFF000017
:1037E000FFF70000FFFB0000FFEF0000FFBF00003D
:1037F000FFDF0000FF9F00000448804704480047A7
:10380000FEE7FEE7FEE7FEE7FEE7FEE79338000887
:10381000C10000080CB500200190009011205F4904
:1038200008605F4840685E494860084640684860F4
:10383000084640683F2109048843594948600846C2
:1038400040680521C9040843554948600846006896
:103850000121090608435249086000BF504800682A
:103860000121490608400028F8D04D4840688008EA
:1038700080004B4948600846406802210843484997
:10388000486000BF464840680C2108400828F9D12C
:103890000CBD10B54248006801210843404908604A
:1038A000084640683F4908403D494860084600686E
:1038B0003D4908403A4908600846006801218904EA
:1038C000884337490860084640683F210904884317
:1038D000334948600846C06A00090001C8620846CA
:1038E000006BFF21543188432D4908630846406B23
:1038F00040084000486300208860FFF78BFF10BD40
:10390000F8B50025002400260027254840680C2132
:1039100008400546002D04D0042D06D0082D2AD1DC
:1039200007E022482249086029E020482049086031
:1039300025E01B4840680F218904084004461848C8
:1039400040680121090408400646A00C841C002E92
:1039500004D118486043164908600BE01048C06A5B
:103960000007000F471C3946104801F04DFC60432A
:103970000F49086003E00D480D49086000BF00BF13
:1039800007484068F021084000090B490D5C0848D1
:103990000068E84006490860F8BD000000200240C9
:1039A000001002400CB8FFF8FFFFF6FE00127A008C
:1039B0003400002000093D00380000207CB50025BF
:1039C00016E06946284601F00DF90646002E0DD195
:1039D000A800F6490C58002C08D0012C06D0E1684C
:1039E0008900A0684018E06301982064681CC5B293
:1039F0003F2DE6D97CBD002400BF02E0C82001F0C5
:103A0000F7F9EB4800780028F8D06421E94800680D
:103A100001F0FAFBE749086008460068002804D175
:103A2000E5490870FF2001F01FF900BF01F0C0FA5E
:103A30000446E2480068E24908600020DF49086067
:103A4000204601F0B9FADB480168DD48006801F062
:103A5000DBFB6421081AD849087001F048FBFFF726
:103A6000ADFF642001F0C4F9E0E700B587B00320A2
:103A700000218022D34B0193029203910490D248FB
:103A80003E23D24A0090D24800F0C2FE06AAD1A13D
:103A90003E2001F022F807B000BD002400BF00BFA7
:103AA00001F086FA0446C5480068401CC349086016
:103AB000204601F081FA01F019FBF1E700B587B06B
:103AC000032000218022C74B0193029203910490AE
:103AD000BD48401C3F23C44A0090C44800F098FEF3
:103AE00006AAC3A13F2000F0F8FF07B000BD04E024
:103AF00000220270401C4A1E91B20029F8D1704782
:103B000070B5C821BE48FFF7F2FF00240DE0601C2D
:103B100085B214206043BA494318142068434618FC
:103B2000002018705E60601C84B2092CEFD3142052
:103B30006043B34943180020187058600846B149E3
:103B4000086070BD70B5D121C900AF48FFF7CFFF45
:103B5000FF2101319548FFF7CAFF00240DE0601CEA
:103B6000C5B24C206043A84943184C20684346180E
:103B70005E61A6A05864601CC4B2152CEFD34C2023
:103B80006043A149431800205861A0A05864002058
:103B90009F4908609C489F49086070BD00219E4A6B
:103BA0001170002004E000219C4A1154411CC8B24D
:103BB0000828F8D300219A4A11709A4A11709A4A3B
:103BC00011609A4A1160704700209949086099492C
:103BD000087099490870994908709949087099497D
:103BE0000860764908607649086072490860704943
:103BF0000870704710B501F075FAFFF7E5FFFFF7A1
:103C0000CDFFFFF79FFFFFF77BFFFFF757FFFFF7A2
:103C10002CFF01F068FA10BD89480078012808D10E
:103C200084480078FF2804D282480078401C8149EB
:103C3000087070478449784A1278885CC100774AD6
:103C4000125C814B9A5C8918764A1170704710B5E6
:103C500000247B480078012833D101F0A9F90446FB
:103C600074480078002804D072480078401E7149DA
:103C7000087070480078002820D16F48007800282C
:103C80001CD1FFF7D7FF67480078800047490858E4
:103C900065490860634800786149097888420DD019
:103CA00061480068006B401C5F490968086365480B
:103CB0000068401C6349086001F0D0F9204601F01B
:103CC0007BF910BD10B500245D480078012812D1A1
:103CD00001F06EF9044657480078002808D156488C
:103CE0000078FF2804D254480078401C52490870DC
:103CF000204601F061F910BD10B5002401F058F91B
:103D000004464C480078002820D14B480078002811
:103D10001CD1FFF78FFF43480078800023490858E3
:103D2000414908603F4800783D49097888420DD0F4
:103D30003D480068006B401C3B49096808634148E6
:103D40000068401C3F49086001F054F9204601F02A
:103D500033F910BD10B5002439480078012824D16A
:103D600001F026F904463448007800281AD0324879
:103D70000078401E304908700846007800280DD1B0
:103D80002C480078002805D1204601F015F9FFF7EE
:103D9000B3FF0AE0204601F00FF906E0204601F0EB
:103DA0000BF902E0204601F007F910BD280E0020B3
:103DB0005C00002054000020500000206C00002017
:103DC00058000020280A0020FEFF0000240C0020DC
:103DD000F739000875432F4F532D4949205374611B
:103DE00074000000280C0020240E00209B3A0008DC
:103DF00075432F4F532D49492049646C65000000DD
:103E0000600900204C000020280F00203F00000027
:103E10007C0000207400002061000020620000206F
:103E20005F0000206000002078000020700000206B
:103E3000840000205D0000205E0000206B00002058
:103E40006A00002048000020C056000810B5F54860
:103E50000078002812D1FFF7EDFEF3480078F3490F
:103E60000870F14800788000F1490858F14908606D
:103E700008460068F049086001F0A1F810BD10B5CF
:103E80000024022000F0B4FF01F092F80446002064
:103E9000EA490860204601F08FF8642000F0A8FF8E
:103EA00001F086F80446E5480068E549086001200D
:103EB000E4490870204601F07FF810BD70B5002677
:103EC00001F05BF901F074F80646DF480068401C19
:103ED000DD490860304601F06FF8D24800780128CB
:103EE0005CD1DA480078002804D0012804D00228E8
:103EF00009D103E001250BE0002509E0012501209F
:103F0000D249087004E001250020D049087000BFA4
:103F100000BF002D00D170BDCD4804683AE001F02B
:103F200047F80646606A002830D0606A401E60622A
:103F3000606A00282AD12820005D37210840002827
:103F400009D02820005DC8210840282108550121FA
:103F50002920015502E00021292001552820005D7B
:103F600008210840002811D12E20005DB9490978A8
:103F70000843B84908702C20005DB749085C2D2122
:103F8000095D08432C21095DB34A505464693046E9
:103F900001F012F82A20005D3F28C0D100BFBAE727
:103FA000FF2024307047704710B52C231A5C0B4655
:103FB0000B339B5C2D24245CA3430C460B34A3548D
:103FC00023469B5C002B04D18B7A2E24245CA343D4
:103FD0008B7210BDFFB582B005460F46A87A9F4987
:103FE0000E5C28460B30805D085C0190F100019862
:103FF0000818C0B20090009880008D490C5800202D
:10400000606227622820005D0499884328210855B2
:104010002921059808552820005D0821084000281E
:104020000DD12E20005D8B4909780843894908701D
:104030008948805D2D21095D0843874988552946B7
:104040002046FFF7B1FF009806B0F0BD10B57A4AE0
:104050001268D061784A12682032137B02460B3214
:10406000D25C754B1B6820335B7B1A43724B1B6819
:1040700020331C7B03460B331A55827A6E4B1B6828
:1040800020339B7B1A4382726B4A12682032117B69
:10409000714A525C684B1B6820335B7B9A436E4BC2
:1040A0005A541A46525C002A08D1634A12682032D8
:1040B000937B684A12789A43664B1A7010BD01468A
:1040C00000228A72002005E000230A460B321354B6
:1040D000421CD0B20828F7D3704705E00B78037074
:1040E000491C401C531E9AB2002AF7D17047014662
:1040F000002002E0491C421CD0B20A78002AF9D103
:104100007047FFB581B005460F460020009000F0D3
:104110004FFF009052480468002C7DD050496069E0
:104120000860009800F048FF27602A20055500210C
:104130002820015529200155002060620B986060FD
:104140000A98E0600398A0600C982082049860822E
:104150002F200155E9102C2001556907490F2B200C
:1041600001552C20015D01208840C1B22E2001554F
:104170002B20015D01208840C1B22D200155002077
:10418000E06120622063A0636063E063206435A087
:104190006064002606E00021B200204648308150CD
:1041A000701CC6B2002EF6D0204600F0E5FF204677
:1041B00000F09AFF00F0FCFE0090A8001C490C5093
:1041C0002348006860610020A06121480068002841
:1041D00002D01F48006884611D4804602E20005DE5
:1041E0001C49097808431B4908702C20005D1A49B6
:1041F000085C2D21095D08432C21095D164A5054A5
:1042000019480078401C18490870009800F0D4FE46
:10421000002005B0F0BDFFE7009800F0CDFE422081
:10422000F7E700006A000020600000205F00002027
:10423000280E002078000020700000206C00002074
:10424000540000205C00002084000020800000203A
:104250007C0000206100002062000020C0560008A1
:10426000740000203F0000006B00002070B5044681
:1042700000262078032801D0002070BD00F098FEB1
:1042800006462589002D02D02089401E2081304617
:1042900000F092FE2846F0E770B505460026D648A5
:1042A0000078002801D0002070BD00F081FE064695
:1042B000D24804680068002804D0D04800684068EC
:1042C000CE490860304600F077FE002C07D003206E
:1042D00020702581002060602046FFF7F0FE204618
:1042E000E2E7F7B582B00446154600200190207839
:1042F000032804D001202870204605B0F0BDBE4838
:104300000078002803D00F2028702046F5E700F041
:104310004FFE0190A07A002801D0012700E000277D
:104320000398002802D0012836D118E0002F0FD1C1
:1043300000202070B1480068606000202081AF48F4
:104340000460019800F038FE00202870002605E087
:10435000019800F031FE49202870264623E005E050
:104360000023012219462046FFF734FEA07A0028D8
:10437000F6D12070A14800686060002020819F482D
:104380000460019800F018FE012F01D1FFF7B4FC82
:1043900000202870002606E0019800F00DFE07209E
:1043A0002870264600BF00BF3046A6E7F8B5054690
:1043B0000E46144600272878032802D001202070DA
:1043C000F8BD8D480078002802D002202070F7E761
:1043D0008B480078002802D00D202070F0E700F014
:1043E000E7FD07462889002808D02889401E288133
:1043F000384600F0E1FD00202070E1E781480068C8
:104400002030007A012108437E4909682031087272
:1044100000217C480068203041727A48006846627A
:104420002846FFF713FE384600F0C6FDFFF764FC90
:1044300000F0BEFD0746734800682030407A00282F
:1044400004D0012809D0022806D102E00020207003
:104450000BE00E20207008E000BF29466948006884
:10446000FFF7A2FD0A20207000BF00BF00216548B1
:1044700000682030017263480068203041720020DB
:1044800060490968C861384600F096FD00BF97E7AB
:10449000F8B504460F461546002000902078032802
:1044A00003D0012028700020F8BD00F081FD0090AD
:1044B000A07A002825D00026002F0FD0012F0CD184
:1044C00007E00223012200212046FFF783FD701C34
:1044D000C6B2A07A0028F4D109E000BF022301226D
:1044E00000212046FFF776FD701CC6B200BF00BF5A
:1044F000009800F061FDFFF7FFFB0E2028703046AA
:10450000D2E7009800F058FD0020287000BFCBE7EC
:1045100070B5044600252078032801D0012070BD25
:1045200000F046FD0546A07A00280CD000230122A9
:1045300019462046FFF74EFD284600F03DFDFFF7E7
:10454000DBFB0020EBE720892F49884207D2208936
:10455000401C2081284600F02FFD0020DFE7284680
:1045600000F02AFD3320DAE7FEB504460D460020B0
:1045700000902078032801D00120FEBD00F018FD36
:104580000090A07AA87227460B37A81C019000263D
:1045900008E03978019801707F1C0198401C019057
:1045A000701CC6B2082EF4D320892880009800F031
:1045B00003FD0020E1E7F8B504460E461546002746
:1045C0002078032802D001202870F8BD00F0F0FC0C
:1045D0000746002028702089002801D0268106E0A7
:1045E000A07A002801D1268101E0492028703846B0
:1045F00000F0E2FC00BFE8E75D0000204C00002076
:104600005E00002070000020FFFF0000F3B587B0BF
:104610000020019000F0CCFC019008988000F9493E
:104620000858002805D0019800F0C6FC282009B0E1
:10463000F0BD0798FF2804D1F34800682030807A45
:10464000079007988000EF490C58002C04D101987E
:1046500000F0B2FC2920EAE7012C04D1019800F017
:10466000ABFC4320E3E70898C71008984007400FC9
:1046700006900120B840C0B2059001210698814003
:10468000C8B20490002107988000DE4A11500898B3
:10469000800011460C502C20065D2E20005D0390FA
:1046A0002D20005D0290D948815D029801400029CB
:1046B0001BD0D648805D02998843D4498855084666
:1046C000805D002805D1D248017803988143D04805
:1046D0000170CF48007805990843CD490870CB4850
:1046E000C05D04990843C949C855E569002D1BD030
:1046F00028460B30805D0299884329460B31885546
:104700000846805D002803D1A97A03988143A972E5
:10471000A87A05990843A87228460B30C05D049911
:10472000084329460B31C8552A21089808552C20E2
:1047300007552B21069808552E21059808552D213F
:1047400004980855019800F037FCB2480078012819
:1047500001D1FFF7D1FA002069E7FFB585B0064621
:104760000F461C460020039000F022FC0390AA484C
:104770000078002805D0039800F01EFC3C2009B00A
:10478000F0BDA0009F49085800282DD10120A100AC
:104790009C4A5050039800F00FFC002339463046E5
:1047A000079A00F0A6FC04900020009001900346B8
:1047B0000246029020460499FFF7A3FC0546002D0F
:1047C00006D19448007801280CD1FFF795FA09E04A
:1047D00000F0EEFB03900020A1008A4A505003989D
:1047E00000F0EAFB2846CAE7039800F0E5FB282022
:1047F000C5E7D307DB0F002B09D002231340002BA2
:1048000005D002E0491E002308C00029FAD17047F4
:10481000FFB585B01C460F9F129D0020039000F04D
:10482000C7FB03907C480078002805D0039800F06F
:10483000C3FB3C2009B0F0BDA00072490858002815
:1048400031D10120A1006F4A5050039800F0B4FB11
:104850002A4638461099FFF7CCFF2B4605A807C813
:1048600000F047FC0490119910986A4623C23A461A
:1048700020460E9B0499FFF744FC0646002E06D105
:104880006448007801280CD1FFF736FA09E000F0FF
:104890008FFB03900020A1005A4A5050039800F06B
:1048A0008BFB3046C6E7039800F086FB2820C1E763
:1048B00070B50546002658480078002801D04020F1
:1048C00070BD3F2D01D13E20FAE700F071FB064696
:1048D000FF2D03D14C4800682030857AA800494953
:1048E0000C58002C04D1304600F066FB4320E7E76B
:1048F000012C04D1304600F05FFB3D20E0E72C2086
:10490000005D4249085C2D21095D88432C21095D29
:104910003E4A50542C20005D1146085C002806D108
:104920002E20015D3A480078884339490870E069D3
:10493000002803D02046E169FFF736FB00206062C3
:104940000021282001552920015534480078FF28EE
:1049500004D232480078401C30490870304600F0DC
:104960002BFBFFF720FB00F023FB06462B480078CB
:10497000002804D029480078401E284908702046A5
:1049800000F0B3FB26480078401E2549087000203F
:10499000A9001C4A5050A069002805D161698861AE
:1049A00020496069086005E0A16960694861616942
:1049B000A06988611C48006860611B4804601BA0F6
:1049C0006064304600F0F8FA12480078012801D1FE
:1049D000FFF792F9002073E7F8B5044600273F2C53
:1049E00001D13E20F8BDFF2C22D100F0E1FA0746AC
:1049F000054800682030C67B384600F0DDFA3046B6
:104A0000F0E70000280E0020700000206200002067
:104A1000610000206A0000205D0000205E00002090
:104A20006B0000207C000020740000203F0000008C
:104A300000F0BEFA0746A000E7490D58002D04D14A
:104A4000384600F0B9FA4320CCE7012D04D13846AE
:104A500000F0B2FA3D20C5E73F212F2041553846EE
:104A600000F0AAFA0020BDE7FEB506460F46144640
:104A700000200090D9480078002803D01120207031
:104A80000020FEBD00F094FA0090FF2E03D1D44820
:104A900000682030867AB000CF490D58002D06D12D
:104AA000009800F089FA432020700020E9E7012DEA
:104AB00006D1009800F080FA432020700020E0E743
:104AC000686C38603868FFF712FB0190009800F0BE
:104AD00073FA002020700198D3E7F8B506460F4618
:104AE000144600200090BD480078002802D0122013
:104AF0002070F8BD00F05CFA0090FF2E03D1B8489A
:104B000000682030867AB000B3490D58002D05D1D9
:104B1000009800F051FA43202070EAE7012D05D1FA
:104B2000009800F049FA43202070E2E76F64009893
:104B300000F042FA0020207000BFDAE770B50546A9
:104B4000002600F035FA0646A800A3490C58002CB0
:104B500004D1304600F030FA462070BD012C04D15B
:104B6000304600F029FA4320F7E72820005D0821AD
:104B70000840002831D02820005DF7210840282176
:104B800008552820005D002822D1606A00281BD12A
:104B90002E20005D934909780843924908702C2023
:104BA000005D9149085C2D21095D08432C21095DB8
:104BB0008D4A5054304600F0FFF98C4800780128A7
:104BC00009D1FFF799F806E0304600F0F5F902E068
:104BD000304600F0F1F90020BFE7304600F0ECF974
:104BE0004420BAE7FEB507460D4600200090286035
:104BF000686000F0DDF90090FF2F03D1784800686D
:104C00002030877AB80074490C58002C04D10098E1
:104C100000F0D2F94320FEBD012C04D1009800F031
:104C2000CBF94320F7E7207CC007C00F002804D150
:104C3000009800F0C1F94520EDE70026E0680190FA
:104C4000A0680290009800F0B7F900E0761C029886
:104C500002C802900029F9D0B00028600198801B9A
:104C6000800068600020D6E7F8B505460020009077
:104C700000F09EF90090FF2D05D1594800682030C2
:104C8000857A012608E0564800682030807AA842DC
:104C900001D1012600E00026A8004F490C58002C45
:104CA00004D1009800F088F94820F8BD012C04D107
:104CB000009800F081F94320F7E72C20075D4A486F
:104CC000C05D2D21095D88434749C8550846C05D30
:104CD000002806D12E20015D4248007888434149D2
:104CE00008702820005D08210843282108550098F5
:104CF00000F062F9012E01D1FEF7FEFF0020D4E79B
:104D0000F8B505460E46002700F052F90746FF2D7C
:104D100003D1334800682030857AA8002E490C580A
:104D2000002C04D1384600F047F92920F8BD012CA9
:104D300004D1384600F040F94320F7E74C222146E1
:104D40003046FFF7CAF9384600F036F90020EDE7A3
:104D5000FEB504460E4617460020019000F028F9E3
:104D60000190FF2C02D11E48056802E0A0001A49FC
:104D70000D58B1002846483040580090019800F086
:104D80001BF9002038700098FEBDFFB581B00446C5
:104D90000E4617460020009000F00AF90090FF2C04
:104DA00002D10F48056802E0A0000B490D58B10080
:104DB000284648304750009800F0FEF8002104983B
:104DC000017005B0F0BD10B50548006800F090F91D
:104DD000FF20FFF76DFD10BD280E00205D000020B4
:104DE0007000002061000020620000206A000020A6
:104DF00070B50546002667480078002800D070BDD1
:104E000065480078002800D0F9E7002D24D000F094
:104E1000CFF80646614800682030047B6048005D9A
:104E20005E4909682031497B88435D490855084639
:104E3000005D002808D1594800682030817B59481E
:104E400000788843574908705448006845623046E6
:104E500000F0B2F8FEF750FF00BFD0E7F8B5054606
:104E60000E4617461C464B480078002801D05520B6
:104E7000F8BD49480078002801D03220F8E77D21AC
:104E8000C900614308467D21C90000F0BDF9E12158
:104E9000090169433C2272438918C9197D22D20055
:104EA0005143401800900098FFF7A2FF0020DFE771
:104EB00070B5054600263F2D01D32A2070BD00F0B5
:104EC00077F80646A80038490C58002C04D1304623
:104ED00000F072F84320F1E7012C04D1304600F0D5
:104EE0006BF84320EAE7606A002804D1304600F0FE
:104EF00063F85020E2E7002060622820005D37213F
:104F00000840002808D02820005D88432821085543
:104F100001212920015502E00021292001552820E6
:104F2000005D08210840002817D12E20005D1D4992
:104F3000097808431B4908702C20005D1849085C5B
:104F40002D21095D08432C21095D154A5054304636
:104F500000F032F8FEF7D0FE02E0304600F02CF808
:104F60000020ABE770B5002500F022F805460F4899
:104F70000468284600F020F8204670BD70B504464D
:104F8000002500F015F8054608480460284600F0A2
:104F900013F870BD5D0000205E000020700000204E
:104FA0006200002061000020280E00208400002004
:104FB000EFF3108072B6704780F310887047414855
:104FC0008047454801210170454801680A6882F31D
:104FD0000888FFBC8046894692469B4604B00FBCB9
:104FE00084468E4683F3038804B487B00FBC03B0B5
:104FF00062B600BD72B684B00FB408B0EFF303839D
:105000007246714660460FB484B0404649465246E7
:105010005B46FFB4EFF3088030490968086029480F
:1050200080472B482B490A7802702C482C490A6883
:105030000260106880F30888FFBC8046894692466B
:105040009B4604B00FBC84468E4683F3038804B4A9
:1050500087B00FBC03B062B600BD00BF72B684B0AB
:105060000FB408B0EFF303837246714660460FB485
:1050700084B04046494652465B46FFB4EFF3088091
:105080001649096808600F488047114811490A7895
:105090000270124812490A680260106880F308889A
:1050A000FFBC8046894692469B4604B00FBC8446AE
:1050B0008E4683F3038804B487B00FBC03B062B696
:1050C00000BD00BF775100084F3C00085D00002084
:1050D0005F000020600000206A00002070000020B7
:1050E00078000020704770477047704770477047DE
:1050F000704770B50446104601252D060560051F52
:1051000028462C600126F643051F28462E60304EA7
:10511000051F28462E602F4E051F28462E602E4E56
:10512000051F28462E607610051F28462E60051F95
:1051300028462960294E051F28462E60284E051F47
:1051400028462E60274E051F28462E60264E051F36
:1051500028462E60254E051F28462E60244E051F2A
:1051600028462E60234E051F28462E60224E051F1E
:1051700028462E6070BD70477047704710B5FFF726
:1051800017FF04461D480078401C1C490870204643
:10519000FFF712FFFEF792FEFEF759FD10BD10B5A6
:1051A0007D21C9001648006800F02EF80446601EF4
:1051B00014494861084600690521084311490861FE
:1051C00008460069022108430E49086110BD00002D
:1051D000121212120303030302020202111111112F
:1051E000101010100909090908080808070707071F
:1051F0000606060605050505040404045D000020F6
:105200003400002000E000E030B50B4601460020ED
:105210002022012409E00D46D5409D4205D31D46BC
:105220009540491B2546954040191546521E002DB4
:10523000F1DC30BD70B500242546002801DA0124D8
:105240004042002901DA01254942FFF7DDFFAC4267
:1052500000D04042002C00D0494270BD10B5431A26
:10526000934209D28318881803E0401E01785B1E20
:105270001970521EF9D210BD03460B439B0703D091
:1052800009E008C9121F08C0042AFAD203E00B780B
:105290000370401C491C521EF9D210BDD2B201E06D
:1052A0000270401C491EFBD270470022F6E710B581
:1052B00013460A4604461946FFF7F0FF204610BD84
:1052C000F0B51FB40646002082B005464024019187
:1052D00000901BE0019922460F46304600F042F84C
:1052E000049A059B801A994110D31046194622460C
:1052F00000F028F8361A8F4101972246012000213C
:10530000009F00F01FF838184D4100902046641EA1
:105310000028DFDC019B00982946324607B0F0BD2B
:10532000064C0125064E05E0E36807CC2B430C3CF8
:1053300098471034B442F7D3FAF7C6FE0458000871
:105340002458000810B5202A04DB0146203A914079
:10535000002010BD914020239C1A0346E3401943CE
:10536000904010BD10B5202A04DB0846203AD040FA
:10537000002110BD0B46D340D0402024A21A9140FA
:105380000843194610BD00000FB410B503A9044B23
:10539000044A029800F026F810BC08BC04B0184774
:1053A0002B0F00081400002030B47446641E2578CA
:1053B000641CAB4204D3635D5B00E31830BC184748
:1053C0001D46F8E702E008C8121F08C1002AFAD1FA
:1053D00070477047002001E001C1121F002AFBD175
:1053E00070470000FFB58FB00F460446002606E068
:1053F00025280AD0129A11999047641C761C2078AF
:105400000028F5D1304613B0F0BD00250121A14A96
:10541000009500E00543641C23780846203B984033
:105420001042F7D120782E2815D10420054360784A
:10543000641C2A280AD101CF641C00900BE000995B
:105440000A22514330394018641C009020780146EC
:1054500030390929F3D920786C280ED004DC4C2887
:1054600013D06A2812D104E074280ED07A280DD106
:105470000BE001204005054307E0012109056278A2
:105480000D43824201D16D18641C641C207886464D
:1054900069284AD008DC0028B4D058286DD0632889
:1054A00010D0642808D140E070286BD0732812D047
:1054B000752860D0782860D0129A7046119990476C
:1054C000761CE5E03878694608720020487202A828
:1054D0000190012003E0386801900020C0433F1D87
:1054E00069070CD5002500E06D1C00998D420FDA8C
:1054F0008542F9DB0199495D0029F5D108E00025D5
:1055000000E06D1C8542FCDB0199495D0029F8D162
:10551000761907E0019801990078491C0191129AC7
:10552000119990476D1EF5D2B2E00A200290002139
:105530006802400F039102280CD001CFC1178446A6
:1055400000290DDA62460846524200218141944604
:105550002D2008E0FF1DFF08FF0003CF8446EFE782
:10556000280504D52B206A46107401203CE0E8078A
:105570003AD02020F7E70A2000E010200021039114
:10558000029007E01020029000210420054308202B
:10559000039100906802400F022810D001CF002133
:1055A000844600200D9028071FD5704670280CD027
:1055B000029A1020039B42401A430CD015E0FF1DB5
:1055C000FF08FF0003CF8446EBE740206A461074D3
:1055D00001200D900CE06046084306D030206A465A
:1055E00010747046507402200D907046582804D0F4
:1055F00029A001900DA80E900DE02CA0F9E76046BF
:10560000039B029AFFF75CFE019B84469B5C0E9A0B
:10561000521E0E92137060460843F0D10E9805A9F1
:10562000081A20300190680701D5009801E0012098
:1056300000900199884203DD01460198081A00E0B4
:1056400000200025009006E004A8129A405D119900
:1056500090476D1C761C0D988542F5DB04E0129A8C
:10566000302011999047761C0099481E009000291F
:10567000F5DC08E00E980E990078491C0E91129AFC
:1056800011999047761C0199481E01900029F1DC80
:10569000641CB4E609280100303132333435363722
:1056A000383961626364656600000000303132336E
:1056B000343536373839414243444546000000000E
:1056C00000000100020001000300010002000100CF
:1056D00004000100020001000300010002000100BB
:1056E00005000100020001000300010002000100AA
:1056F000040001000200010003000100020001009B
:105700000600010002000100030001000200010088
:10571000040001000200010003000100020001007A
:105720000500010002000100030001000200010069
:10573000040001000200010003000100020001005A
:105740000700010002000100030001000200010047
:10575000040001000200010003000100020001003A
:105760000500010002000100030001000200010029
:10577000040001000200010003000100020001001A
:105780000600010002000100030001000200010008
:1057900004000100020001000300010002000100FA
:1057A00005000100020001000300010002000100E9
:1057B00004000100020001000300010002000100DA
:1057C0002A2A2A2A2A2A2A2A2A2A2A2A2A2A2A2A39
:1057D0002A2A2A737069666C617368207465737411
:1057E0002073756363657373212A2A2A2A2A2A2A59
:1057F0002A2A2A2A2A2A2A2A2A2A2A2A2A2A2A2A09
:105800002A0D0A002458000800000020880000002B
:10581000C4530008AC580008880000202819000074
:10582000D453000800000000010000000000000048
:105830000000000000000000000000000000000068
:10584000000000000000000000000000010203044E
:105850000102030406070809006CDC0200000000D6
:105860000000000001020304060708090000000010
:105870000000000000000000000000000000000028
:105880000000000000000000000000000000000018
:105890000000000000000000000000000000000008
:0C58A000000000000000000000000000FC
:04000005080000C12E
:00000001FF
